:020000040000fa
:080000000002040000000000f2
:020000040000fa
:100400002ff024000eff2d000e01880000000000d8
:100410000c000700000e2e00110020000f00070046
:10042000000020000000e000020032000000020096
:100430000000000046e00200000000000040da007a
:100440000000fe00e01921000000e0000200320080
:10045000002020009001880000000600a102880012
:10046000800078000000eb001a003700e2804000b6
:1004700054a0b4009101ba00e280400054a0b4003e
:100480009102ba00e280400054a0b4000002eb00e8
:10049000472bde00f507b200a6018800602ce100c2
:1004a00008003a000049eb000201e80002003900b0
:1004b0003420ec0002f0a0008301e900f9ff3e00c7
:1004c000040037006128e100010032000082eb00e7
:1004d000040007001101ba000200e000e3ff3a0047
:1004e0000000060004d0a300e20f49001c00390000
:1004f000810278003549ba000201e80002003900a3
:100500003420ec0002f0a0008301e9000f0032006b
:100510002549ba000201e800020039003420ec004d
:1005200002f0a0008301e900080032000400e000ae
:100530000600320015c9ba000201e80002003900c5
:100540003420ec0002f0a0008301e9008180e80083
:1005500054a0b4000300e000e2ff3a0000000600ef
:100560009102ba00055978008301e900f7ff3200d3
:10057000c82ade00055978008301e900f3ff320044
:100580000400e000f1ff320011d9ba00eeff37009d
:10059000889fbe008a9fbe008c1f780001057800ee
:1005a00082057800d0a224001004e0000700320089
:1005b000c0a224001080fb000038a3000900320014
:1005c0000200e00007003200d2013700c0a2240080
:1005d0001080fb000038a300020032000200e0009f
:1005e0007b013a00c0a22400104478000848a30010
:1005f0000f0032000b00e0000d0032001301370045
:100600003340780003027800020e82008600410029
:10061000804878008200e800010e8a00010e820006
:10062000858f500045013600090e8a0043013700ce
:100630000804e00002003d000b00e000b2003a00b8
:10064000c0a224001080fb000058a300020032006a
:100650000b00e0005b003a00c0a224001080fb0009
:100660000068a300020032000b00e00005003a0021
:100670000b0078004f0678004f05be004f04be0007
:10068000000006008a0478000b0545000b00e90015
:1006900067046000394078002086020000000000f6
:1006a0008a8f5400f2ff32000800e000230032007d
:1006b000e10f54001c003200e20f5400170032001a
:1006c000e30f540012003200e40f54000d0032001a
:1006d000e50f540008003200e60f5400030032001a
:1006e0003940780020860200000000003940780080
:1006f00020860200000000003940780020860200b9
:100700000000000039407800208602000000000050
:10071000394078002086020000000000394078004f
:100720002086020000000000394078002086020088
:10073000000000008a8f5400cdff3200394078005d
:10074000090478002086020000000000394078008b
:100750002086020000000000194078008884e8002c
:10076000208602000000000019407800e3044400e5
:10077000208602000000000019407800e4044400d4
:10078000208602000000000019407800e5044400c3
:10079000208602000000000019407800e6044400b2
:1007a000208602000000000019407800e7044400a1
:1007b00020860200000000008a8f5400acff320047
:1007c000deff37000b0645000a80ea000c004000ff
:1007d000670460008a047800394078005a86020075
:1007e000000000008c8f54009bff32000800e000e6
:1007f00023003200e10f54001c003200e20f5400cd
:1008000017003200e30f540012003200e40f5400ce
:100810000d003200e50f540008003200e60f5400ce
:1008200003003200394078005a86020000000000c0
:10083000394078005a8602000000000039407800f4
:100840005a86020000000000394078005a860200f3
:1008500000000000394078005a86020000000000c5
:10086000394078005a8602000000000039407800c4
:100870005a860200000000008c8f540076ff320080
:1008800039407800090478005a8602000000000010
:10089000394078005a8602000000000019407800b4
:1008a0008884e8005a8602000000000019407800a1
:1008b000e30444005a86020000000000194078005a
:1008c000e40444005a860200000000001940780049
:1008d000e50444005a860200000000001940780038
:1008e000e60444005a860200000000001940780027
:1008f000e70444005a860200000000008c8f540078
:1009000055ff3200deff37000b0645000a80ea0083
:100910000c004000670460008a04780039407800c9
:10092000f03c0200000000008c8f540044ff3200b5
:100930000800e00023003200e10f54001c003200e8
:10094000e20f540017003200e30f5400120032008f
:10095000e40f54000d003200e50f5400080032008f
:10096000e60f54000300320039407800f03c0200ea
:100970000000000039407800f03c02000000000058
:1009800039407800f03c0200000000003940780057
:10099000f03c02000000000039407800f03c02000a
:1009a0000000000039407800f03c02000000000028
:1009b00039407800f03c0200000000008c8f5400a9
:1009c0001fff32003940780009047800f03c020033
:1009d0000000000039407800f03c020000000000f8
:1009e000194078008884e800f03c02000000000014
:1009f00019407800e3044400f03c020000000000cd
:100a000019407800e4044400f03c020000000000bb
:100a100019407800e5044400f03c020000000000aa
:100a200019407800e6044400f03c02000000000099
:100a300019407800e7044400f03c02000000000088
:100a40008c8f5400fefe3200deff3700a6d222005b
:100a5000f54320008004eb008b0345000a80ea0088
:100a600007004000630060008a017800020e8200e7
:100a700086004100b34878008200e800010e8a0039
:100a8000010e8200858f5000080036000a003700f2
:100a90000000e000dafe3200e10f50001a003200e0
:100aa000e20f50000f00320005003700878f510021
:100ab000f7ff3a00defe3700090e8a00fbff370021
:100ac000020e820086004100b34878008200e800f0
:100ad000010e8a00010e8200858f50000100360051
:100ae000090e8a00020e820086004100b348780099
:100af0008200e800010e8a00010e8200858f5000fe
:100b000001003600090e8a00020e820086004100b4
:100b1000b34878008200e800010e8a00010e8200ce
:100b2000858f500003003e00878f5100b4fe3a00cd
:100b3000bffe3700090e8a00fbff37001340780024
:100b40008401e800020e820086004100804878009f
:100b50008200e800010e8a00010e8200858f50009d
:100b600001003600090e8a00134078008481e800f5
:100b7000020e820086004100804878008200e80072
:100b8000010e8a00010e8200858f500001003600a0
:100b9000090e8a0013407800e3014200020e820031
:100ba00086004100804878008200e800010e8a003b
:100bb000010e8200858f500003003e00878f510098
:100bc0008ffe3a009afe3700090e8a00fbff3700bd
:100bd000028640000a80ea000c00400067046000c2
:100be0008a047800394078009a7e020000000000f4
:100bf0008c8f54007bfe32000800e000230032009e
:100c0000e10f54001c003200e20f540017003200c4
:100c1000e30f540012003200e40f54000d003200c4
:100c2000e50f540008003200e60f540003003200c4
:100c3000394078009a7e02000000000039407800b8
:100c40009a7e020000000000394078009a7e02007f
:100c500000000000394078009a7e02000000000089
:100c6000394078009a7e0200000000003940780088
:100c70009a7e020000000000394078009a7e02004f
:100c8000000000008c8f540056fe3200394078007e
:100c9000090478009a7e02000000000039407800c4
:100ca0009a7e020000000000194078008884e80065
:100cb0009a7e02000000000019407800e30444001e
:100cc0009a7e02000000000019407800e40444000d
:100cd0009a7e02000000000019407800e5044400fc
:100ce0009a7e02000000000019407800e6044400eb
:100cf0009a7e02000000000019407800e7044400da
:100d00009a7e0200000000008c8f540035fe3200f5
:100d1000deff37008a047800028640000a80ea007d
:100d20000c0040006704600039407800fc7e02003f
:100d3000000000008c8f54002afe32000800e00002
:100d400023003200e10f54001c003200e20f540077
:100d500017003200e30f540012003200e40f540079
:100d60000d003200e50f540008003200e60f540079
:100d70000300320039407800fc7e020000000000d1
:100d800039407800fc7e0200000000003940780005
:100d9000fc7e02000000000039407800fc7e02006a
:100da0000000000039407800fc7e020000000000d6
:100db00039407800fc7e02000000000039407800d5
:100dc000fc7e0200000000008c8f540005fe320003
:100dd0003940780009047800fc7e02000000000021
:100de00039407800fc7e02000000000019407800c5
:100df0008884e800fc7e02000000000019407800b2
:100e0000e3044400fc7e020000000000194078006a
:100e1000e4044400fc7e0200000000001940780059
:100e2000e5044400fc7e0200000000001940780048
:100e3000e6044400fc7e0200000000001940780037
:100e4000e7044400fc7e0200000000008c8f540088
:100e5000e4fd3200deff37006900e10004003500e8
:100e60006d00e100030034000002b1000100320017
:100e70000000050010000500020ab900001bb900bf
:100e80000200b8008100420081004300000006001b
:100e9000881f7800000478005001be004000be00aa
:100ea0000400400085804800060149008781490010
:100eb000009cbe000294be000400e1000588e10031
:100ec0000690e1000798e10002003100680044004c
:100ed0001008e8004f04780000000600f48747007f
:100ee000889fbe008a9fbe008c9fbe008e1f780028
:100ef0000205be000004be00d4b79f00e5b79f0006
:100f0000f6b79f0087bf9f000000eb00c0b79f00af
:100f1000b0b79f00a0b79f0090b79f0080b79f0019
:100f20000d042000bfb097004fb0970000014000b3
:100f30000000e0000f003d004f08de0000007100df
:100f4000c0b79f009e00070001003d001200200076
:100f5000a100070001003d0012002000a6000700cc
:100f6000b1000700b60007000f004000c8ff0700ef
:100f7000220037004f08de0000067100ccb79f004a
:100f80008f00070001003d001200200092000700c2
:100f900001003d001200200097000700a20007009a
:100fa0000fb297009fb297002fb39700bfb397007f
:100fb000a90007000000520081805a0002015b0076
:100fc00083815b0080b79f0091b79f00a2b79f000d
:100fd000b3b79f000007eb009f0007000020e1006f
:100fe00001a8e10002b0e10003b8e1000100310016
:100ff0001e0020000e005600c0b79f004fb29700a1
:101000000400e0000700350010002000010020006f
:101010006011b80008047000898470000a0571002e
:101020008b8571008d06e900beff3a000400e000e8
:1010300003003d00820007000f00400094ff0700fe
:101040004fa897000000e00004003a000fb497009a
:101050009fb497002fb59700bfb597009400070085
:101060004f0778004f06be004f05be004f04be007c
:101070004f01b10000000600881f78001800200012
:10108000881f780095ff07008f87e9004f047800dc
:1010900000000600801feb0090ff07008f87e9002b
:1010a00000000600889fbe008a9fbe008c1f78004b
:1010b0006e00070007003d0073000700e00f5b00b3
:1010c000e08f5b0007003d00320007000006eb00e8
:1010d000040037003400070002003d002a0007002a
:1010e0001c00200072000700e3ff07000203be009f
:1010f0000002be000c00e0000100320022000700e8
:101100000400be000601be004f0678004f05be0079
:101110004f04be0000000600889fbe008a9fbe00ec
:101120008c1f78005100070005003d0056000700a5
:10113000e00f5b00e08f5b0006003d00040037001d
:101140001900070003003d006000b8006011b800fe
:101150001000070056000700ceff07000203be0084
:101160000002be000c00e000010032000600070093
:101170000400be000601be004f0678004f05be0009
:101180004f04be00000006006000b8006011b80007
:101190000000370004025000858258000603590001
:1011a00087835900000006000006eb00e00f5200a4
:1011b000e08f5a00e00f5b00e08f5b00000006004c
:1011c0000180400090b79f000001eb008fb09700b6
:1011d0000100e000000006000200700090b79f00d0
:1011e0000180400080b79f000001eb00ffa897003e
:1011f0000100e000000006000200700080b79f00c0
:10120000018040006faa9700cf20de00010070002f
:10121000f0af9f0004024200250007004f18de00d7
:101220000002720000000600e4af9f0008044400c2
:1012300089844c000a054d008b854d000000060096
:101240003fb29700cfb297005fb39700efb397001c
:1012500000fe2f00000006003fb09700cfb09700bf
:101260005fb19700efb19700000006000205be00d5
:101270000004be00e00f5000e08f5800e00f59005e
:10128000e08f5900000006006000b8006011b8004f
:1012900008045000898458000a0559008b855900bc
:1012a0001c002000e00f5200e08f5a0000000600f2
:1012b0000800be000a01be00000006006022b8005f
:1012c000060220000000d0008180d2000482d200fb
:1012d0008582d2000000a0000202520083825a00e0
:1012e000030031000202420083824a000000a10094
:1012f0000603e900f3ff3a0000000600efff0700d5
:101300000400be0000000600f4ff2f00e2023700d8
:1013100003f0a200889fbe008a9fbe008c1f780049
:10132000f8020700ff0233006450e1004f00320072
:101330006420e1005200320003826c0007003b0091
:101340000905d0000306d000820f54000c065d0092
:10135000020039000200320089017800030678009b
:101360008582550004003d000003fd008103fd005f
:101370008502ea008b854200840f720002003b0068
:1013800060001000e08018006011b8000005eb005c
:101390007a28e1000a00390006007800c75ddd0008
:1013a000f707b200878075002d0037008281710039
:1013b0000a017800610560008180d1000080d300bf
:1013c0008502e900f9ff3b000604400087844800dd
:1013d00002003b0060041400e0841c000988a300a4
:1013e000070032008a81710082817100610164000e
:1013f0008904d1000884d3008b05e800170037006a
:101400000978a30013003a000b00e0001300340039
:101410008b05e9000804440089844c000a447400e8
:101420000978a3000d003a000b00e000070034002b
:101430008b05e9000804440089844c0001003a004f
:101440000b0020000978a300f7ff32000001eb0039
:1014500002003700828171000a017800c102070092
:101460000cf0a70001f0a000b70237006420e100f3
:1014700002003a00838f6c00b70233000801be00ff
:101480000200be00b00237000001be00db02070010
:101490000470a70003f0a10003f8a30013003a00b2
:1014a0006509b10010003200090035006928e1002b
:1014b0000200350001002800000005000000400087
:1014c000818048008502e900fcff3a000000060028
:1014d000f88f4200050035008100d1000080d30064
:1014e0008502e800fcff3a00000006008000eb00e7
:1014f00000000500889fbe008a9fbe00010578009d
:101500000100e0000400350008003c000000e0009d
:10151000200032000500370060001000e080180055
:1015200002003b0001f02c001a0037000004be004e
:101530006011b8006b0920000982cf000200390059
:101540000882cf000441b000694252000e00320010
:1015500008003b0082817100610164008904d100b0
:101560000884d3008b05e8000442e800f9ff3a0044
:10157000050037000804440089844c008b05e9000d
:101580000442e900fbff3a00760207000af0a700d8
:1015900001f0a0004f05be004f04be000000060091
:1015a000889fbe008a9fbe008c1f780055020700ee
:1015b0005c02330003866c006450e10024003200ba
:1015c0006420e100270032006150e1002200320077
:1015d0006120e100210032008b854200eb07b10061
:1015e0000134b800003ab8000804420089844a0077
:1015f000013ab8000030b8008880400009014a0074
:1016000004003300000040008180480002014900ce
:101610008b05e900c909dd0083017000010032007b
:1016200013002000c814de004814dd004709de0066
:101630001200b200c808de000884700049020700ea
:1016400001f0a1000cf0a70001f0a0003e0237005d
:101650006120e100400232000801be000200be002d
:10166000f7ff37006150e100fcff3a003a02370013
:101670001400200008023700889fbe008a9fbe0029
:101680008c1f78001f0207002602330003866c00bf
:101690006450e1002e0032006420e100330032008b
:1016a0006150e1002f0032006120e1003100320082
:1016b00085855500eb07b0000900200008042000d4
:1016c000050037000804440089844c000a003100fa
:1016d0000603430087834b000001530081815b00b8
:1016e000f8ff33000203be000800a0000804440015
:1016f00089844c00f6ff3900c639dd008301730090
:1017000001003200130020008904d1000884d300b6
:101710000998a300050032000800a7000300a000fc
:101720008904d1000884d3008b05e8008904d10026
:101730000884d3000001eb000281d20009020700f7
:1017400001f0a1000cf0a70001f0a000fe0137009d
:101750006420e100000232000801be000200be0069
:10176000f7ff37006120e100fb0132006000b800a4
:10177000f3ff37000000200001f82700f0ff3700da
:101780004f89de0082017800310237002800fa001c
:10179000889fbe008a9fbe008c9fbe00070678000f
:1017a000878669000c003b000304780087047800fa
:1017b00008f0a10009f0a100840f5000858f5800a7
:1017c000860f5900890f5c00030033000cf0a20063
:1017d00001003a000cf0a100540207006400e1008f
:1017e0005f003200780147006408e10061003200c8
:1017f0006c014700748557003200be001201be0024
:101800003a04be001a05be001e039000be0a9000f6
:101810008503530006003d000004fd008104fd0027
:101820000205fd008305fd008703ea00050378003b
:101830000df8a3000400320060041400e0841c00d2
:1018400060051d00e0851d006022b8007d032000ba
:101850000d38e1008006eb000b0039004433dd0059
:10186000f300b200830173003900370084827200f4
:101870000d027800e10664008b85d1000a85d30053
:101880008984d3000884d3008703e900f7ff3b0075
:1018900008004000898048000a0149008b81490006
:1018a00004003b0060001000e08018006001190097
:1018b000e08119000358a300090032008d827200f4
:1018c00084827200610260008301d1000281d30032
:1018d0008180d3000080d3000603e8001b0037009e
:1018e0000348a30017003a000600e0001700340088
:1018f0000603e9000d00a3000000480081804800b5
:1019000002014900838149000348a3000f003a0007
:101910000600e000090034000603e9000000400072
:1019200081804800020149008381490001003a009a
:101930000003eb000348a300f5ff32006022b8006b
:101940000200370084827200618266001002070084
:1019500003f0a1000cf0a70003f0a000070237007d
:10196000640147006408e10002003a000df8a3009a
:10197000ff013a003200be001201be00ff01370035
:101980002800fa00889fbe008a9fbe008c9fbe0080
:1019900003866b00e50107000028a30064003a00fd
:1019a0000128a30067003a000008a30062003a0083
:1019b0000108a30065003a001e009000be089000d8
:1019c00081064000ed3fb100f4805700ee01900029
:1019d000111ab8008e099000311bb8009e099000c2
:1019e000311cb800511db800f485570046000700af
:1019f000fe0190003a0007008b85e8003e000700da
:101a00008e09900040000700ee01900034000700ae
:101a10008b85e800380007008e0990004000070021
:101a20009e0990001b18b800890440000a854800f0
:101a3000fe019000340007008b85e80038000700a5
:101a4000ee019000300007008e0990001b18b800ce
:101a5000890440000a8548000a98a30008003a005b
:101a60000402420085824a0006034b0087834b0034
:101a700008044c0089844c000a054d008d06e900dd
:101a800084827200850273004c3add008502720088
:101a90000100320015002000443ade001400b200bc
:101aa0004538de00cb45dd000b007000c540de0090
:101ab000cb4ddd008b8070004549de00cb55dd004d
:101ac0000b017100c551de000d037800b001070065
:101ad00003f0a1000cf0a70003f0a000a70137005d
:101ae0001b18b8008502400006834800e0834b00c5
:101af00060044c00070037001b18b80006034000c4
:101b000087834800faff37001b18b800870340009e
:101b100008844800e0844c0060054d000000060089
:101b20001b18b8000804400089844800faff3700f9
:101b30000108a3008e013a005800be005801be0003
:101b4000e3ff37000008a30089013a000904780088
:101b5000f9ff37002800fa00889fbe008a9fbe0068
:101b60008c9fbe0003866b00700107006400e100db
:101b7000440032006408e1004a0032006100e100e4
:101b8000460032006108e10049003200ec064700df
:101b90006000b8003d02be003d03be00f486570061
:101ba0006011b8003d04be003d05be007d0320006d
:101bb0000b0037000000a0008d06e9001300320082
:101bc0000402420085824a0006034b0087834b00d3
:101bd00000004000818048000201490083814900e3
:101be0000802520089825a000a035b008b835b0063
:101bf000f0ff3b000802420089824a000a034b00c2
:101c00008b834b008d06e900edff3a008482720061
:101c100086827200f707b2008782720001003200ec
:101c2000150020001e0490003e0b90000603540097
:101c3000e63fb0000368a300070032000000a700e1
:101c40000500a0008301d1000281d3008180d30070
:101c50000080d3000603e8008301d1000281d30095
:101c60008180d3000080d3000002eb000482d20008
:101c70004701070003f0a1000cf0a70003f0a0004b
:101c80003e013700640247006408e1003801320079
:101c90003400be003401be00f6ff37006108e100e9
:101ca000330132006011b8006000b800f1ff370066
:101cb00003ff270002002000fbff37001400fa009a
:101cc000889fbe008a9fbe008c9fbe000005be009c
:101cd0000206be00680047000c90be000a90be00dd
:101ce000570107006400e1001a00320016003e00b0
:101cf0006100e1001a0032006e049000fe049000c2
:101d00000e0b90009e0b90006011b8009e05900095
:101d10000b38b100d501200082817100610164009f
:101d20008703d1000683d3008984d3000884d300bd
:101d30008502e900f8ff3a008a0007000df0a700cd
:101d400001f0a0000d013700f1ff2700f0ff2f0088
:101d50000a01370001f8270000002000f7ff3700d4
:101d60006000b800f5ff370081037800a30007008a
:101d70000001be006000b8000478a30013003a0020
:101d80006220e10015003e000d0039008301d10002
:101d90000281d3008180d3008301d1000281d3006e
:101da0008180d3008301d1000281d3008180d300e0
:101db0000538b000c42add00f300b2008381720050
:101dc00007f0a70003f0a00000000600f3ff2700c3
:101dd000f2ff2f006110b900fbff370003ff27005f
:101de000f7ff37001400fa00889fbe008a9fbe00ec
:101df0008c9fbe000004be000205be0068004700c4
:101e00000a90be000890be000d0107000070a700f8
:101e10000bf0a1000bf8a30016003a009e02900000
:101e20003043200080825200b0fe2f000028e100e5
:101e30000d003c00b0fc2f000028e1000d00340034
:101e40001e0990008e0890007e0090000501b000f1
:101e50000201d1008180d3000080d3008502e80018
:101e6000fbff3a00c50037000100280000002000f9
:101e7000c20037006000b800c00037008f1fd100db
:101e8000160107008f87e9000000e000000006004f
:101e90000400200000003700889fbe008a9fbe001b
:101ea000841f7800170007004f00780011003300ee
:101eb000f0ff2f00838f6c0006003b0004056500d7
:101ec0000a00a7000800370009f0a6001000200053
:101ed00008003700820f5400838f5c000300390034
:101ee0001000200001003e000000200009f0a700c3
:101ef0000000ea004f05be004f04be000000e000f5
:101f0000000006000004be003c0007000003be0005
:101f10000405be000200be0038000700844f7500b3
:101f2000000006000200be006450e100050036001b
:101f30006420e100020036000968a30001003a00b5
:101f40000800be000160a0004f0678004f05be00eb
:101f50004f04be0000000600f0ff2f00f1ff270035
:101f6000f9ff370081002000618055000b003d0023
:101f70000b00200061fe2f000100e1001d00340075
:101f800082817100610164008904d1000884d3005a
:101f90000000e800faff3a007100200061006400d0
:101fa0000300700002006000090032006104440078
:101fb000e0844c000988a500050032008b05e8008c
:101fc0006808e10002003a008904d1000884d300c7
:101fd000f20f20000258e10005003d00c75ddd0062
:101fe000f907b2008980750008007800000006003b
:101ff0000bf827008b00780000000500c70ade0000
:10200000f107b200f50fb20008003200e1cf420044
:10201000020032000170a00024000500810f700052
:10202000010032000408050044000500810f700023
:1020300002003a00140005008502e900000040009b
:1020400081c04800fcff3b000170a0002400050097
:10205000889fbe00830478000300e0002c00350058
:1020600003003c0000827000040271002600320070
:1020700036432000c50020008383cf000a003900ca
:102080000541b1008283cf00070039000541b1004e
:102090008183cf00040039000541b1008083cf0067
:1020a000010039000541b10085c353006022b8002a
:1020b000120032000a003b0084827200610260005c
:1020c0008301d1000281d3008180d3000080d3003e
:1020d0000603e8008743e800f7ff3a0007003700ef
:1020e00000004000818048000201490083814900ce
:1020f0000603e9008743e900f9ff3a0024000700de
:1021000009f0a70003f0a0004f04be000000060085
:1021100060001000e080180060011900e0811900e3
:10212000d3ff3b00033e2c00f7ff37006804470055
:102130000294be000094be00fc0447008694be00da
:102140008494be00090078003d0007000800780074
:102150003b00070099007800814f70000b003b00a6
:102160000800be00860007004f00b10003003700e2
:10217000f3ff2700f2ff2f006110b9004f06be00e9
:102180004f05be004f04be000080fa0000000600ac
:102190001800200057002000080453000d003d00e7
:1021a0000600200097fc2f000740e1001e003400cd
:1021b00084827200610260008301d1000281d30039
:1021c0008180d3000080d3000804e800f8ff3a00c3
:1021d00047002000610460000504740004046400ea
:1021e0000d00320061004000e080480060014900bd
:1021f000e081490003b8a500070032000603e800ab
:102200006538e10004003a008301d1000281d30067
:102210008180d3000080d300f87f20000830e100e7
:1022200003003500080378006000b8006011b800b2
:102230004433dd00f300b2008301730000000600a8
:10224000800078005002be005003be004439de001a
:10225000f700b200f37f20000301610009003200a3
:102260000218e10016003a00850172008301730034
:10227000838173000008200015003a004000200010
:10228000130037008501720083017300838173009e
:1022900005003a0004a8be0006a8be0010002000f9
:1022a0000b0037000201e9000402420085824a0067
:1022b00006034b0087834b000748a300f9ff320059
:1022c0000740a00004a8be0006a8be002000200011
:1022d000800098009200980000000600889fbe00d1
:1022e0008a9fbe008c9fbe000404be000605be008f
:1022f000809fbe00829fbe002f000700040678006a
:102300000800be000a01be002b000700840678000a
:102310004f03be004f02be008d4f76007fb0970086
:1023200013003300f0ff2f008b8f6b0006003b0083
:102330000d0666000c00a7000a00370007f0a60093
:10234000100020000a003700880f5200898f5a00c1
:102350008a0f5b008b8f5b000300390010002000a8
:1023600001003e000000200007f0a7000000ea0086
:102370004f06be004f05be004f04be000000060021
:10238000e48240001078a30007003200640240009d
:102390001178a3003400be001401be000400320016
:1023a0000330a700000006003500be001501be0086
:1023b0000330a0000000060005ff27000582610031
:1023c000070032000428e10001003200240005006b
:1023d0000600070001003a0044000500040805005b
:1023e00002000700f9ff3a00140005006f82610047
:1023f00081027000850271008502720000000600f3
:10240000801feb00b5ff07008f87e9000000e000a8
:10241000000006003a0007000509780000000600e9
:10242000809feb00adff07008f87e9000000e00010
:10243000000006001400fa00889fbe008a9fbe00bc
:102440008c9fbe000004be000205be00680047006d
:102450000a90be000890be0079ff07000070a70038
:102460000bf0a1000bf8a30020003a009e09900099
:102470000e099000fe0090006e0090009e029000f9
:1024800034432000848252003cff32000a003c00aa
:10249000b4fc2f000428e100140034008301d100b3
:1024a0000281d3008180d3000080d3008502e80040
:1024b000faff3a0031ff3700b40020000428e100a1
:1024c00007003c00000040008180480002014900f4
:1024d000838149008502e900faff3a0027ff3700af
:1024e0000300280002002000010037006011b8003e
:1024f0006000b80021ff370007f0a200a3fc3700fe
:102500000003be00bdfe07006220e10002003200b1
:102510000600be0005000500e507b100f107b200a6
:1025200004f023008480700007f0a70001f0a000f1
:10253000240005001602a8000000060016c2bf0015
:102540000008a300fdff3a0016c2bf000028a30048
:10255000faff3a0016c2bf000038a300f7ff3a00a6
:1025600016c2bf000018a300f4ff3a0016c2bf0055
:102570000048a300f1ff3a0019c2bf000068a300a1
:10258000eeff3a00000006001642a8000000060018
:102590000080fb00901088000080eb001842e200f1
:1025a0000800350019c2bf000068a300fdff3a0013
:1025b000e2ff0700e0ff2f001942e20001003500b2
:1025c0000000eb00000006008000780020c2bf0081
:1025d00066406000e64f500001003200f10fb2008b
:1025e00021118800000006008000780030c2bf0082
:1025f00066406000e64f500001003200f10fb2006b
:10260000a1118800000006008000780050c2bf00c1
:1026100066406000e64f500001003200f10fb2004a
:10262000a11288000000060080007800b0c2bf0040
:1026300066406000e64f500001003200f10fb2002a
:10264000a115880000000600000278008001eb0060
:1026500002003700015a78008301e800828f5100a0
:10266000fcff3a0000000600800078003004e00023
:10267000feff3a00010050000000e90000000600e3
:1026800001002000d0668a00e1668a0011c0b30014
:1026900080cd2400014878000000060082cd24008f
:1026a0001204e00006003a001000200001002000a3
:1026b000d0668a00e1668a0010c0b3000049780045
:1026c000d2e62400631c2400d0668200e16682000a
:1026d000e9f907000001be0090032300010020007b
:1026e0000200400083804800d0668a00e1668a00cc
:1026f0004088de00cf80de0000f0a1000000060070
:1027000010417800814f5100040032000000e800c1
:102710000204e000faff3a000000eb0000000600af
:102720000400fa00e0bf9f00e4815700812978008f
:102730000002eb000f0037006fb897009040780060
:102740007fb89700104078000402e80080cf500066
:10275000040032008180fb000080fb0000805000fc
:10276000070037006fb897000000e800e0bf9f0047
:102770009309e800820f5200efff3a000000eb00df
:102780000080fa0000000600000278008001eb00e3
:1027900002003700315a78008301e800828f51002f
:1027a000fcff3a000000060080017800000178007c
:1027b000010037000201e8001204e000fdff3a00ca
:1027c00031407800005978000004e000fcff3a0036
:1027d000030078000000060010417800b14151006c
:1027e00003003a000000e8000204e000faff3a00ab
:1027f0000300fb0000000600889fbe008a9fbe0009
:102800008000780000c2b300010037008900780022
:102810008104780039447800804f5400fbff320077
:10282000e94f5400f9ff3200d0c2b300804f54008a
:1028300004003a00194478008184e8001ac0b3000b
:10284000060037000045eb00b0c2b300804f5400d3
:1028500002003a00194478008184e8006022b80040
:102860000a003700a2002000030020000400be0080
:1028700081f907000b4144000281fb0003002000a6
:102880000002410081824900394478000880fb0041
:102890000bfd2f000b004000e90f5000f1ff360048
:1028a0000a04e0000200320060021200e0821a0016
:1028b0000400be004f05be004f04be00000006002d
:1028c0008000780000c2b300010037008100e800fa
:1028d00011417800804f5100fcff3200e94f510058
:1028e000faff3200d0c2b300804f510003003a001b
:1028f0008100e80014c0b300050037000042eb007f
:10290000b0c2b300804f510001003a008100e800de
:102910008001eb0005fd2f0004003700ea18b80025
:1029200002004000850140008100e8001101fb0029
:1029300005004100e90f5000f8ff36000404e000f4
:10294000010032008301ea00030078000000060065
:10295000889fbe008a9fbe008c9fbe008e1f78009d
:1029600000047800810678000100e00003003200d6
:10297000800e7800010037000804e80098447800d1
:102980000900fb0034f90700800078000000e00037
:10299000f9ff3a00d0c2b30080cf540003003a00e0
:1029a0000804e8001bc0b30005003700b0c2b30044
:1029b00080cf540001003a000804e8008145780007
:1029c0000005eb000a0778006033b8000b48a3004d
:1029d00005003a00e0c2b300984f100002003a0030
:1029e0000b44a0001b003700984478000900fb004e
:1029f0000cfd2f000c004000e90f500017003e00b6
:102a00000b14a0000b00fb00e90f55000e00320074
:102a10000048a300010032000e07e9000a05e800a3
:102a2000a2002000030020000600be0012f90700eb
:102a30000cc144000281fb000300200000034100a0
:102a400081834900030037000048a30001003a00d9
:102a50000e07e8000804e800dcff370050c6b300aa
:102a600080cf5400040032000001eb0050c4b300da
:102a700080cf540032003a008801e800934078008b
:102a8000d0c2b30080cf500002003a000b34a00047
:102a900003003700b0c2b30080cf500003003a00fb
:102aa0008881e800010037008301e8009340780046
:102ab00005c3b30085cf5000fbff32000100fb00cf
:102ac00004fd2f0004004000e90f50000300360011
:102ad000030478000001eb001600370005c0500029
:102ae0000081fb000304e800984078000100fb002f
:102af00004004000e90f50000e003e00ea10b8004c
:102b000085c050008180fb00010140000384e80083
:102b1000984178000300fb0004004000e90f5000da
:102b200004003e00ea11b80005c051000080fb001f
:102b3000000141000b38a300010032000201ea004d
:102b4000020547000d00e000030032000b18a3004f
:102b500001003200880e78000600be0065fa07000a
:102b60000004be000006be006011b800c0fa0700f5
:102b70006011b8000000e0005900320030f82f006a
:102b8000800f550003003d002002200000688a00ed
:102b90005300370000082000800f55000a00340061
:102ba0002002200000688a000b08a3000300320006
:102bb0000200200003f82f00490037000200200027
:102bc00003f82700460037000a00e0001c003d0023
:102bd0000a05ea0006003700922f20005301250065
:102be0000800be00a4fa07000004be006a055500f4
:102bf000e90f5500f8ff3c000006eb000600370027
:102c000002002000031224000800be009afa070008
:102c10000004be000c06e8008a0f5600f8ff3a00d8
:102c20000806be0002002000030820000800be00c5
:102c30008ffa07000000e00025003d001c0037006f
:102c40000a00e00007003c0021003700922f20001e
:102c5000530125000800be0051fa07000004be0021
:102c60006a055500e94f5500f8ff3e000006eb00ed
:102c70000600370002002000031224000800be00f6
:102c800047fa07000004be000c06e8008a0f560051
:102c9000f8ff3a000806be00f2ff2f00f3f7270006
:102ca0000800be0098f907000000e00008003400aa
:102cb0000b08a300030032000200200003082800d4
:102cc000070037000200200003082000040037003e
:102cd0000b08a300010032000df0a2000c01be00a1
:102ce0000200be004f0778004f06be004f05be0031
:102cf0004f04be00000006008000eb0014ff370008
:102d00008001780000017800314078000059780097
:102d10000004e000fcff3a00030078000000060019
:102d200080027800800178000202780007003700f6
:102d30000402e90031407800805978000004e00086
:102d400002003a000000eb0006003700028042005b
:102d5000808f5100f6ff3a00faff37008059eb00f0
:102d60000000e800840f5000fcff3a0005007800e6
:102d70000000060001c424004e003700889fbe00fa
:102d80000004be000d0037000900780036fe070081
:102d9000000178000800be008d0007000000e00080
:102da00002003a0008007800090037009900fb0093
:102db0000800e80052fe0700000478000800e00068
:102dc000020032001804e000efff3a000000eb00c0
:102dd0004f04be0000000600889fbe000004be0035
:102de000060037000804e8000000fb0089007800b6
:102df00030000700e10f4000040032001840780066
:102e00000004e000f7ff3a000000eb004f04be00b2
:102e100000000600881f780001c42400eeff0700b0
:102e20000004780001c42400a00020002100070055
:102e3000080078004f047800000006000000fa0047
:102e4000cfb897006881570000c42400c90007006c
:102e50000080fa00000006000c00fa00889fbe0007
:102e600000047800cfb09700f0ff2700d0bf9f008c
:102e70008004eb0099bf9f0088bf9f00a8bf9f0000
:102e8000200c2000b0bf9f00788157007080570051
:102e9000b80007000fb89700094878000fb89700ee
:102ea00008045000080078004f04be000080fa00bb
:102eb00000000600889fbe00000178000104780031
:102ec000b10090000118a3003d0032000198a3005a
:102ed00003003a00180090000000e00038003a00bb
:102ee0000190a0003104980082047800f90fb2002c
:102ef000180090000000e00002003a002800900056
:102f0000000c7800ea8f540006003a003800900068
:102f10000078a30003003a0088007800d000200069
:102f2000e4ff07009800900058009000808f500048
:102f30000b0032000100e80010049800180078002f
:102f400009587800000c780011c0b30020ce24008e
:102f500001487800ea8f540006003200190037005b
:102f600088007800094078007f0507008004780019
:102f700014003700380090000088a30011003200d0
:102f800018019000a80090004800900080f507000c
:102f900098009000810f500004003200380090002b
:102fa0000003b300300498008084eb000000eb00c5
:102fb0001004980028009000000c780001003700f1
:102fc0008084eb00090078004f04be00000006007a
:102fd000810178000002eb000c003700904078007f
:102fe0000104e000030032000402e80093cf500027
:102ff000040032008180fb001380fb000080500041
:10300000000006000000e8008301e800820f520083
:10301000f2ff3a0000000500889fbe008a1f78007a
:10302000804078000004e00021003d008040ea007c
:10303000d0c6b30080cf5000090034008104fb00eb
:1030400042062000110009008204d8000001780027
:10305000010078004311dd008a6d24001f00370055
:103060000100fb00836d240039003700a20020001e
:10307000110009000200d80000017800010078006a
:103080004311dd00030141004300dd000300400067
:103090003002be002003be0042209000d2209000eb
:1030a000f22190006221900035fa07002e003700cf
:1030b000d0c6b30080cf5000230034008104fb0051
:1030c00042062000110009008204d80000017800a7
:1030d000010078004311dd008a7824000a014100d4
:1030e000a8002000110009000800d8004300dd00fe
:1030f0000a00400040229000d022900060239000ff
:10310000f02390000288900092889000b28990008d
:10311000228990001afa0700801f780001027800c7
:10312000110009008804d8000102fd004f0078005a
:103130000402fb004322dd000a0242005403be00e9
:103140004402be00d8ff37000100fb008378240052
:10315000eacf5000c5ff3c004300dd000300400003
:103160005001be004000be004f0578004f04be0075
:10317000000006008f03b000889fbe008a9fbe003b
:103180008c9fbe008e1f7800e0b79f00f1b79f00b4
:1031900082bf9f000000eb00a0b79f00e50437004e
:1031a0000001eb0050c2b30080cf50000900320094
:1031b0000100fb00efb097003eff0700e10f400069
:1031c000dc043200afb097008100e800a1b79f0097
:1031d000d8043700ffb1970093407800d0c2b30005
:1031e00080cf50000c00320007003c006d405000c2
:1031f00080cf50000d0032006b40400080cf500067
:1032000019003a000e00370000c3b30080cf500011
:1032100015003a000f0037000230a0007fb297007f
:103220000402e800f4b79f00eaff37000200a000a4
:10323000ffb297008502e800f5b79f00e5ff370071
:103240000210a0007fb697000c06e800fcb79f00b4
:10325000e0ff37000220a0007fb097000000e800e8
:10326000f0b79f00dbff37000218a3000100320017
:103270000200a1000238a300010032000220a100d8
:103280000100fb0003fd2f0003004000e90f500088
:103290000f003e008000eb00c1b79f004fb29700c7
:1032a000ea20b800ffb297009500fb000100400043
:1032b00003004000c0b79f005500fb00f5b79f001a
:1032c00003004000e90f50000d003e00f3ff3700ff
:1032d0000006eb00ccb79f00a0c2b30080cf500027
:1032e00007003a000fb89700c000780080bf9f0029
:1032f000c1b79f00ffb197008301e800f3b79f00bb
:10330000e0c2b3007fb29700944f100021003a0052
:10331000820678000de0a0008400e80064405000c0
:10332000914f100004003200f1b79f008002eb00c3
:10333000b5b79f00100037000fbe97004c00780013
:103340008cbf9f00b0b79f00ffb097008180e8005e
:10335000f1b79f0013003700bfb19700ea18b8001b
:103360000100400002004000b0b79f007fb297000c
:103370000402e800f4b79f00ffb297009500fb003d
:1033800002fd2f0002804000e90f5000f2ff3600de
:1033900004003700820678000dc0a0000006eb0094
:1033a000bcb79f007fb09700b0407800f0b79f0097
:1033b000c17f9f00c0c6b30080cf500027003200fd
:1033c00014003c006840500080cf50009d00320047
:1033d00009003c006c40500080cf500029003200b2
:1033e0006b40400080cf5000720032000104e000ca
:1033f000560432008e00370060c6b30080cf500004
:103400001c0032006340400080cf500088003a002a
:103410008c00370030c7b30080cf50001c00320052
:1034200007003c006440500080cf50001300320081
:103430000040e80080cf50007d003a0011003700c6
:1034400050c7b30080cf50007d0032006340400081
:1034500080cf500076003a000b00370000002800b3
:103460000d48a30001003a0000012000808676008c
:10347000ccff37000da0a000720037000d60a00047
:10348000700037000d50a0000d70a0006d003700d7
:103490008fb897004100780081bf9f00000478003a
:1034a0000000e00001003a0088c024008004eb0026
:1034b000010037008104e80089007800088044009a
:1034c0001004e000fbff3a003fb197000200e0006b
:1034d00003003200890f510001003100820478009e
:1034e0000007eb00cfb19700898f51000100360033
:1034f000098751004368de00e106600019003a00c8
:103500000d06780009003700efb097000002200098
:1035100068fe0700e10f4000030032002fb2970061
:103520000402e800a4b79f000c06e8008e0f5600c6
:10353000f5ff3a000087eb000a00370088007800aa
:103540003100fb0001047800efb0970059fe07003e
:10355000e10f400003003200afb297008502e8009f
:10356000a5b79f000900e90080047800e10f400042
:10357000f2ff3a000006eb000d00e0000a003a00fe
:10358000ec033700efb097000002200049fe07006f
:10359000e10f4000030032002fb097000000e80068
:1035a000a0b79f000c06e8008e0f5600f5ff3a000a
:1035b000e00337008fb897004100780081bf9f007b
:1035c000cf80de0001017800820178000205be0094
:1035d0000004be000203be000002be004822de005e
:1035e000482edd0004027600c47f9f000d48a30032
:1035f0000a0032000404e00008003200e14f4200fb
:1036000006003200d1fb2f000180470004487800fb
:10361000184098002900200002003700d07f9f004a
:1036200019002000d2fb2f0002844700a6ff3700bc
:10363000c3fb2f000384470019002000a2ff3700be
:103640000d0cb300007020000082660027023200db
:103650000dc8a3000200320064002000b4b79f0030
:103660000d48a300050032000fba97004401be00c8
:103670004400be0084bf9f00040037008fba97004b
:103680004500be0085bf9f00b7f90700e0af9f006f
:10369000f1af9f0082b79f0093b79f006022b800f0
:1036a0006033b8006fa89700ffa897000fb197008c
:1036b0009fb19700f1f907000000e0000a003d000b
:1036c0006fa89700ffa897000fb197009fb19700d0
:1036d00003f0a200e0af9f00f1af9f0082b79f0010
:1036e00093b79f003d00b3000000eb0080a79f0050
:1036f0006022b8006033b8006fa89700ffa8970059
:103700000fb197009fb197003dfb07000000e0005c
:10371000340032006fa89700ffa897000fb1970000
:103720009fb1970065f9070003fc2f000381470054
:1037300038fb07000fa097000000e900e300b80085
:10374000a2002000110009000200d8008000fd0046
:1037500081a79f000100e00002003d000100e90098
:1037600080a79f000fa497000840ea002afe0700e8
:103770006faa9700ffaa97000fb397009fb3970017
:103780007ff80700a0af9f00b1af9f00c2af9f00be
:10379000d3af9f006022b8000600200007ff23007f
:1037a000b6f907000000e00002003d000800e90053
:1037b0000b0037006022b8000600200047022400fa
:1037c0002fa89700bfa897004fa99700dfa99700df
:1037d00013fb07000000e000020035000800e800cd
:1037e00080a79f003fb29700f80f520057003c009f
:1037f000d0c6b300804f5200290036000485fb007c
:1038000042062000110009000285d800000178005e
:10381000010478004311dd008b6d24000b01410091
:103820006022b8000600200007fe230002889000f6
:1038300092889000b28990002289900050f8070089
:10384000a9002000809fbe00110009000984d80053
:10385000000478004f00be004344dd000b04440028
:1038600048229000d822900068239000f82390000e
:1038700043f80700801f780001027800110009005a
:103880000985d8000102fd004f0078004322dd00c9
:103890000b0242005403be004402be001f0037006a
:1038a0000480fb00896d2400ea4f520014003600aa
:1038b000a2002000110009000280d8000001780059
:1038c000010478004311dd00090141006022b800c5
:1038d0000600200007fe230042209000d220900026
:1038e000f22190006221900025f807004344dd009a
:1038f000090444003802be002803be000700370058
:103900004300dd00090040006022b80006002000ee
:1039100007fe23005001be004000be0018f807005b
:103920000002be000203be006fa89700ffa8970028
:103930000fb197009fb1970094f70700e0af9f0089
:10394000f1af9f0082b79f0093b79f000fa497002d
:10395000e90f540015003c006022b8006033b80045
:103960006fa89700ffa897000fb197009fb197002d
:10397000a3fa07000000e000320032006fa89700b1
:10398000ffa897000fb197009fb19700a9fa070011
:10399000e00f5000e08f5800e00f5900e08f590011
:1039a00028003a00e10f54002600340004002000f3
:1039b00005002e00b6e02200170124002fa8970072
:1039c000bfa897004fa99700dfa997002bf9070020
:1039d0000000e00002003d007300540001003700c9
:1039e0007200540080a79f000fc097008afd070057
:1039f000a0af9f00b1af9f00c2af9f00d3af9f00a9
:103a00000002be000203be006fa89700ffa8970047
:103a10000fb197009fb197004ef8070085fa070095
:103a20000205be000004be006000b8006011b800ce
:103a3000a0a79f00b1a79f00c2a79f00d3a79f0088
:103a40002e0037006fa89700ffa897000fb19700ce
:103a50009fb1970077fa07000205be000004be0080
:103a6000e00f5000e08f5800e00f5900e08f590040
:103a70000200350076f9070013003700100020001f
:103a8000010020006011b80008006000898060001b
:103a90000a0161008b8161008b03d1000a83d3008e
:103aa0008982d3000882d3000000720081807200f6
:103ab000020173008381730065f907000002be00f4
:103ac0000203be0031f707000002be000203be0081
:103ad0006fa89700ffa897000fb197009fb19700bc
:103ae00085fa0700a0a79f00b1a79f00c2a79f006b
:103af000d3a79f000000eb0080a79f0014c0b30075
:103b000065a624000b0037000400fb004300dd0025
:103b1000050040005001be004000be000040e10032
:103b200001c8e10002d0e10003d8e1000300390040
:103b30000442e800f44f5200f3ff3a00c47f9f00b4
:103b40000400fb00bfb09700008040008fa09700ea
:103b5000010040004fb1970000075100bfb197002e
:103b60000300e000010032000e07e90063806600f8
:103b7000010032000e07e9000d28a30026003200e4
:103b8000e18066000d18a3000c003200d002200076
:103b90000100e00001003a000080e900efb097006a
:103ba000c4fc0700e10f4000180032002fb297005c
:103bb0000402e800a4b79f00140037000100e000f1
:103bc00012003200efb0970000022000b9fc07009d
:103bd000e10f40000d003200afb297008502e8000f
:103be000a5b79f0009003700efb097000003200041
:103bf000b0fc0700e10f4000030032002fb6970031
:103c00000c06e800acb79f000e07e9000e00e000cc
:103c1000f5ff3c003d0037000d38a3000a003200dc
:103c20000b003700efb0970000022000a1fc070056
:103c3000e10f4000030032002fb097000000e800c1
:103c4000a0b79f000e07e9000e00e000f5ff3c0062
:103c5000e18066000d18a3000c003200d0022000a5
:103c60000100e00001003a000080e900efb0970099
:103c700090fc0700e10f400024003200afb0970035
:103c80008100e800a1b79f00200037000100e0009c
:103c90001e003200efb097000002200085fc0700f4
:103ca000e10f4000190032002fb197000201e80037
:103cb000a2b79f00150037000000fb004300dd00a5
:103cc00061a62400010040003002be002003be00b7
:103cd0000800be000a01be00e7f40700a4002000af
:103ce000050020006033b800eaf407000003b000cc
:103cf000efb097006ffc0700e10f400003003200b7
:103d0000afb197008301e800a3b79f004f7a9700f7
:103d10000440e900c07f9f00e14f4000e6ff3a0009
:103d20000b003700efb097000003200061fc070094
:103d3000e10f400003003200afb297008502e800b7
:103d4000a5b79f000fa097000000e90080a79f0083
:103d50000fa097000000e000f2ff3c003fb6970084
:103d600020c1b300f20f560001003c006fe0970045
:103d7000c07f9f00cf7897000100fb003fb1970004
:103d800000005100e0a79f000104e000080032009d
:103d9000efb09700e002200046fc0700e10f400072
:103da00003003200afb197008301e800a3b79f0082
:103db0004f78970098fc07000002be000203be0087
:103dc0002fa09700bfa097004fa19700dfa19700f9
:103dd000ebf6070097f907001e0037000000fb0014
:103de0004300dd006ca624000c0040003002be0041
:103df0002003be000800be000a01be009ef40700ba
:103e0000a4002000050020006033b800a1f40700e2
:103e10000003b000efb0970026fc0700e10f400060
:103e2000030032002fb297000402e800a4b79f00fd
:103e3000cf7a97000500fb004300dd000c00400036
:103e40003002be002003be000800be000a01be0012
:103e500090f407000205be000004be004f7e9700ec
:103e60000c40e900c07f9f00e14f4000dbff3a00bb
:103e70000006eb0009003700efb0970000032000b8
:103e80000cfc0700e10f4000030032002fb0970048
:103e90000000e800a0b79f000c06e800efa0970024
:103ea000810f5600f4ff3a000d38a300a101320043
:103eb0000e00e0009f0134000006eb00efb0970019
:103ec00000022000fbfb0700e10f4000030032006e
:103ed0002fb197000201e800a2b79f000c06e8008e
:103ee0008e0f560093013200f4ff37000d0078006a
:103ef000000cb20028003a000d00e00005003d0073
:103f00008fb997004305be004304be0083bf9f00e6
:103f1000140037000d48a3000b0032000fba9700c1
:103f20004400be0084bf9f004f89de00cf91de00b9
:103f30000002be0002037800820378000605be007e
:103f40000404be00070037008fba970045007800d0
:103f500085bf9f0000047800cfc4de00090578000b
:103f60008a057800e00f5400e08f5c00e00f5d00f0
:103f7000e08f5d0020003d003d00b3006000b80010
:103f80006011b80008045000898458000a055900df
:103f90008b855900180037000d00e00005003d003a
:103fa0000fbe97004c05be004c04be008cbf9f00a6
:103fb000110037000d48a300080032008fba9700a7
:103fc0004500be0085bf9f00040178008401780091
:103fd0000205be000004be00070037000fbe9700b8
:103fe0004c0078008cbf9f0000047800090020007e
:103ff0000a0020000b0020003fb097000000e00006
:1040000007003a00e00f5400e08f5c00e00f5d0015
:10401000e08f5d0002003a0011002000b1b79f0060
:104020000d0778000e0cb20000042000800f57002e
:104030002f00320003003c000e00e00007003200b9
:104040003f00370000082000800f570014003200a6
:10405000000c2000800f570039003a0014c0b30054
:1040600065a624000b0037000400fb004300dd00c0
:10407000050040005001be004000be000040e100cd
:1040800001c8e10002d0e10003d8e1002b003900b3
:104090000442e800f44f5200f3ff3a0027003700d3
:1040a00000012000010020006011b80014c0b3001e
:1040b0000040e10001c8e10002d0e10003d8e100c6
:1040c0001e003900450020000000d0008180d20091
:1040d0000281d2008381d2008502e900faff3a0012
:1040e0000442e800f04f5200f1ff3a00130037009d
:1040f00080002000010020006011b80014c0b3004f
:104100000040e10001c8e10002d0e10003d8e10075
:104110000a0039003c0020000000d0008180d2005d
:104120000281d2008381d2000c06e900faff3a0036
:104130000442e800f54f5200f1ff3a00c47f9f00af
:10414000cf7897000100fb003fb19700820f50002d
:1041500002003d00c27f9f0004003700bfb19700fe
:10416000808f510001003d00b0b79f004fb2970013
:104170000400e000040032006380660002003200a8
:104180000402e900c4b79f000de8a3000b00320051
:10419000cfb297003fb697008c8f520003003c00cf
:1041a0000000eb00c0b79f0004003700cfb09700bd
:1041b0003fb1970082805000c1b79f00cf79970030
:1041c0000300fb000002eb0094a79f00cfb2970012
:1041d000808f5200020034000080520090a79f00a0
:1041e0000d28a30036003200e18066000d18a30000
:1041f0000c003200d00220000100e00001003a0073
:104200000080e900efb097002afb0700e10f4000b3
:104210000e0032002fb697000c06e800acb79f00e6
:104220000a0037000100e00008003200efb09700fc
:10423000000220001ffb0700e10f400003003200d6
:104240002fb097000000e800a0b79f009fa0970044
:104250000100e0000f0032000006eb00efb0970015
:104260000003200013fb0700e10f400003003200b1
:104270002fb197000201e800a2b79f000c06e800ea
:104280009fa19700830f5600f4ff3a000002eb0055
:1042900094a79f00bfb297004328dd00e1a524004a
:1042a0000100400090af9f004228dd0064005000f4
:1042b00080af9f00e32eb800fca79f00820037006c
:1042c0001fa097000000e000110032006880660027
:1042d0000f003a0000067800efb0970000022000bf
:1042e000f4fa0700e10f400003003200afb097007e
:1042f0008100e800a1b79f000c06e8001fa197000d
:10430000820f5600f4ff3a008001eb0093a79f0054
:10431000e18066000d18a3000c003200d0022000de
:104320000100e00001003a000080e900efb09700d2
:10433000e0fa0700e10f4000d6ff32002fb29700ed
:104340000402e800a4b79f00d2ff37000100e0009c
:10435000d0ff3200efb0970000022000d5fa07002e
:10436000e10f4000cbff3200afb297008502e800ba
:10437000a5b79f00c7ff370000042000800f57003b
:104380003100320003003c000e00e0000700320064
:104390003e00370000082000800f57001100320057
:1043a000000c2000800f570038003a001fa897002b
:1043b0003002be002003be000800be000a01be009d
:1043c0002df30700a4002000050020006033b80092
:1043d00030f3070004c3b30004424000c47f9f00d1
:1043e0002a003700f5c02400d5b79f000d58a30060
:1043f00002003a0000c22400d0b79f001400200041
:10440000050020006033b8008fa897008100e90004
:10441000050033000402d0008582d2000683d2005a
:104420008783d200f9ff37000800be000a01be00f2
:1044300011f307006f0060005fb1970000004100ba
:104440001040780010003700140020000500200004
:104450006033b8008c0178008301e9000500330067
:104460000402d0008582d2000683d2008783d20066
:10447000f9ff37000800be000a01be00fef2070087
:10448000674060000043b000c07f9f004f7a9700f4
:104490000400fb00efb0970086fa0700e10f400030
:1044a00003003200afb297008502e800a5b79f0075
:1044b0001fa897006800500090af9f008fa897003a
:1044c000e480500081af9f0063065600d0ff2f00ac
:1044d0003fb197008010b8007fa297000000420013
:1044e00063005000800f5600a3ff3a000d38a30070
:1044f000100032009fa297000500e0000d0034007c
:104500000006eb00efb097000002200069fa0700f8
:10451000e10f4000030032002fb097000000e800d8
:10452000a0b79f000c06e8009fa09700810f5600df
:10453000f4ff3a007fb19700b2407800f2b79f00d5
:10454000c17f9f000104e00015fb3a002fb09700e7
:104550004f0778004f06be004f05be004f04be0057
:104560008f03b100000006000200fa00889fbe0021
:10457000a0ff9f0001047800b10090008104780042
:104580000904b200020032000000fb0036003700d0
:104590000118a30005003a000103b300310498009c
:1045a000190498000080eb002f003700580090009d
:1045b0000000e00006003a004800900012002000d1
:1045c000e6805700f2ef0700190498002400370036
:1045d000280090000000e00008003a00e0cd240030
:1045e00020049800000c780020002000500498005f
:1045f000100498000130a0003104980018019000c8
:10460000a800900048009000e1ef0700280090000b
:10461000000c78000080eb0010049800180078006f
:10462000aff8970001587800000c78002ff8970039
:10463000ea4f50000a003a00380090000088a300ba
:104640000700320018019000a80090004800900078
:10465000cfef070019049800a8009000010c780023
:10466000aff897000100fb004f04be000080fa0085
:044670000000060040
:020000040000fa
:0200000401f009
:04000800cfff000026
:020000040000fa
:0200000401f009
:04000c0078ff000079
:020000040000fa
:0200000401f009
:040010005aff000093
:020000040000fa
:0200000401f009
:04001400daff00000f
:020000040000fa
:0200000401f009
:04001800fcff0000e9
:020000040000fa
:0200000401f009
:04001c00dcff000005
:020000040000fa
:0200000401f009
:04002000cfff00000e
:020000040000fa
:10000800ae980000b6980000a6980000be980000c0
:10001800c6980000a6980000a6980000a6980000c0
:10002800a6980000a6980000a69800004cf00100d1
:10003800a6980000a6980000a6980000a6980000c0
:10004800ce980000a6980000a6980000a8740000aa
:10005800a4740000a6980000a6980000a6980000c6
:10006800a6980000a6980000a6980000a698000090
:1000780004ae0000a6980000a6980000a69800000c
:10008800a6980000a6980000a6980000d09c000042
:10009800fc750000a698000026750000f4740000a6
:1000a800a6980000a6980000a6980000a698000050
:1000b800a6980000fa760000a6980000a69800000e
:1000c800a6980000a6980000a6980000a698000030
:1000d800a6980000a6980000a698000008760000e0
:1000e800dc760000a6980000a6980000e8760000dc
:1000f800a6980000a6980000a6980000a698000000
:10010800a6980000a6980000a6980000a6980000ef
:10011800a6980000a6980000a6980000a6980000df
:10012800a6980000a6980000a6980000a6980000cf
:10013800a6980000a6980000a6980000a6980000bf
:10014800a6980000a6980000a6980000a6980000af
:10015800a6980000a6980000a6980000a69800009f
:10016800a6980000a69800005676000024760000a5
:10017800a6980000a6980000a6980000a69800007f
:10018800047e0000327e0000a6980000a6980000b9
:10019800a6980000a6980000a6980000a69800005f
:1001a800a6980000a6980000a6980000a69800004f
:1001b800a6980000a6980000a6980000a69800003f
:1001c800a6980000a6980000a6980000a69800002f
:1001d800a6980000a6980000a6980000a69800001f
:1001e800a6980000a6980000a6980000a69800000f
:1001f800a6980000a6980000a6980000a6980000ff
:10020800a6980000a6980000a6980000a6980000ee
:10021800a6980000a6980000a6980000a6980000de
:10022800a6980000a6980000a6980000a6980000ce
:10023800a6980000a6980000a6980000a6980000be
:10024800a6980000a6980000a6980000a6980000ae
:10025800a6980000a6980000a6980000a69800009e
:020000040000fa
:1046740000c100008140000001c000008041000032
:1046840001c000008041000000c100008140000022
:1046940001c000008041000000c100008140000012
:1046a40000c100008140000001c000008041000002
:1046b40001c000008041000000c1000081400000f2
:1046c40000c100008140000001c0000080410000e2
:1046d40000c100008140000001c0000080410000d2
:1046e40001c000008041000000c1000081400000c2
:1046f40001c000008041000000c1000081400000b2
:1047040000c100008140000001c0000080410000a1
:1047140000c100008140000001c000008041000091
:1047240001c000008041000000c100008140000081
:1047340000c100008140000001c000008041000071
:1047440001c000008041000000c100008140000061
:1047540001c000008041000000c100008140000051
:1047640000c100008140000001c000008041000041
:1047740001c000008041000000c100008140000031
:1047840000c100008140000001c000008041000021
:1047940000c100008140000001c000008041000011
:1047a40001c000008041000000c100008140000001
:1047b40000c100008140000001c0000080410000f1
:1047c40001c000008041000000c1000081400000e1
:1047d40001c000008041000000c1000081400000d1
:1047e40000c100008140000001c0000080410000c1
:1047f40000c100008140000001c0000080410000b1
:1048040001c000008041000000c1000081400000a0
:1048140001c000008041000000c100008140000090
:1048240000c100008140000001c000008041000080
:1048340001c000008041000000c100008140000070
:1048440000c100008140000001c000008041000060
:1048540000c100008140000001c000008041000050
:1048640001c000008041000000c100008140000040
:1048740000c00000c1010000c303000002c2000028
:10488400c606000007c7000005c50000c4040000f8
:10489400cc0c00000dcd00000fcf0000ce0e0000a8
:1048a4000aca0000cb0b0000c909000008c80000b8
:1048b400d818000019d900001bdb0000da1a000028
:1048c4001ede0000df1f0000dd1d00001cdc0000f8
:1048d40014d40000d5150000d717000016d6000028
:1048e400d212000013d3000011d10000d010000038
:1048f400f030000031f1000033f30000f232000028
:1049040036f60000f7370000f535000034f40000f7
:104914003cfc0000fd3d0000ff3f00003efe0000a7
:10492400fa3a00003bfb000039f90000f8380000b7
:1049340028e80000e9290000eb2b00002aea000027
:10494400ee2e00002fef00002ded0000ec2c0000f7
:10495400e424000025e5000027e70000e626000027
:1049640022e20000e3230000e121000020e0000037
:10497400a060000061a1000063a30000a262000027
:1049840066a60000a7670000a565000064a40000f7
:104994006cac0000ad6d0000af6f00006eae0000a7
:1049a400aa6a00006bab000069a90000a8680000b7
:1049b40078b80000b9790000bb7b00007aba000027
:1049c400be7e00007fbf00007dbd0000bc7c0000f7
:1049d400b474000075b5000077b70000b676000027
:1049e40072b20000b3730000b171000070b0000037
:1049f4005090000091510000935300005292000027
:104a040096560000579700005595000094540000f6
:104a14009c5c00005d9d00005f9f00009e5e0000a6
:104a24005a9a00009b5b00009959000058980000b6
:104a340088480000498900004b8b00008a4a000026
:104a44004e8e00008f4f00008d4d00004c8c0000f6
:104a54004484000085450000874700004686000026
:104a64008242000043830000418100008040000036
:104a740016000000170000001800000019000000d4
:104a84001a0000001b000000ffff0000ffff0000f1
:104a940000000000ffff000002000000ffff000014
:104aa4000c000000ffff00000400000005000000ef
:104ab400ffff0000ffff00000600000007000000e9
:104ac400ffff0000ffff00000800000009000000d5
:104ad400ffff0000ffff00000a0000000b000000c1
:104ae4000e0000000f000000100000001100000084
:104af4001200000013000000140000001500000064
:104b0400ffff0000ffff0000e8030000e9030000ce
:104b1400ea030000eb030000ec030000ed030000d7
:104b2400ffff0000ffff0000ee030000ef030000a2
:104b3400f0030000f1030000ffff0000ffff00008e
:104b4400f2030000f3030000f4030000f503000087
:104b5400f6030000f7030000f8030000f903000067
:104b6400fa030000fb030000fc030000fd03000047
:104b740010080000ffff0000ffff0000ffff00001f
:104b84001a0400001b0400001c0400001d040000a3
:104b940034000000ffff000036000000ffff0000ab
:104ba40038000000ffff00003e000000ffff00008f
:104bb400ffff0000ffff000044000000ffff0000b3
:104bc40046000000ffff000032000000ffff00006d
:104bd40028080000ffff00003a000000ffff00006b
:104be4003c000000ffff000042000000ffff000047
:104bf40048000000ffff000032080000ffff000033
:104c040034080000ffff00003608000037080000e9
:104c140038080000390800003a0800003b0800008a
:104c24003c0800003d0800003e0800003f0800006a
:104c3400400800004108000042080000430800004a
:104c4400440800004508000046080000470800002a
:104c540048080000490800004a0800004b0800000a
:104c64004c0800004d0800004e0800004f080000ea
:104c740050080000510800005208000053080000ca
:104c840054080000550800005608000057080000aa
:104c940058080000590800005a0800005b0800008a
:104ca4005c0800005d0800005e0800005f0800006a
:104cb400600800006108000062080000630800004a
:104cc40002000000ffff000034000000ffff0000ae
:104cd400f2030000f3030000f4030000f5030000f6
:104ce400f6030000f7030000f8030000f9030000d6
:104cf400fa030000fb030000fc030000fd030000b6
:104d04000400000005000000ffff0000494f000000
:104d14005458000030780000785500006e6b000095
:104d24006e6f0000776e0000004e00006f200000e0
:104d3400416e0000616c00006f67000073000000aa
:104d440020450000727200006f720000003c0000f9
:104d54004e4100004e4f00003e0000003c4d00005c
:104d6400414300003e250000303200005825000079
:104d74003032000058250000303200005825000071
:104d84003032000058250000303200005825000061
:104d940030320000583c00002f4d00004143000019
:104da4003e0000003c490000463100003e00000087
:104db4003c44000048430000503e00000044000012
:104dc4004843000050000000537400006174000068
:104dd40069630000003c00002f44000048430000c9
:104de400503e0000003c0000495000003e250000f9
:104df400752e0000257500002e250000752e00007c
:104e0400257500003c2f0000495000003e000000c2
:104e14003c4e0000455400004d410000534b00003f
:104e24003e250000752e0000257500002e2500008b
:104e3400752e0000257500003c2f00004e45000033
:104e4400544d0000415300004b3e0000003c000064
:104e5400474100005445000057410000593e0000fe
:104e6400257500002e250000752e00002575000014
:104e74002e250000753c00002f470000415400001f
:104e840045570000415900003e0000003c5000001e
:104e94004f520000543e0000257500003c2f0000d6
:104ea400504f0000525400003e0000003c4c0000f3
:104eb400494e00004b3e0000557000003c2f00009e
:104ec4004c4900004e4b00003e0000003c2f000007
:104ed40049460000313e0000003c0000484f0000fd
:104ee400535400004e4100004d4500003e000000b8
:104ef40025730000003c00002f4800004f530000c1
:104f0400544e0000414d0000453e0000003c0000ae
:104f1400434f00004d4d0000454e0000543e00003c
:104f2400003c00002f4300004f4d00004d450000a1
:104f34004e5400003e0000003c4300004f4e000071
:104f440046490000473e00004e4100004e4f00001d
:104f540020250000733c00002f4300004f4e00004a
:104f640046490000473e0000003c0000434f00005b
:104f74004e460000494700003e3f00003f3f00000e
:104f84003c2f0000434f00004e46000049470000fc
:104f94003e0000003c410000505000005645000017
:104fa40052530000494f00004e3e00002d2d0000da
:104fb4002d3c00002f4100005050000056450000d9
:104fc40052530000494f00004e3e0000003c0000d8
:104fd4005345000054550000503e00002d2d0000a4
:104fe4002d3c00002f530000455400005550000094
:104ff4003e0000003c5600004552000053490000aa
:105004004f4e00003e000000557000006461000037
:10501400746900006e6700002e2e00002e00000050
:105024003476000035720000322d00005035000047
:1050340037320000003c00002f56000045520000ab
:10504400534900004f4e00003e0000003c41000068
:105054004c54000045520000413e00000055000041
:105064007064000061740000696e00006720000035
:105074002575000025250000004800005720000089
:10508400257500002e250000303200007520000038
:105094005357000020250000752e00002530000025
:1050a40032750000003c00002f4100004c54000009
:1050b40045520000413e0000003c0000494600000b
:1050c4003e3100003c2f0000494600003e00000035
:1050d4003c490000444500004e5400004255000085
:1050e400545400004f4e00002f3e000000500000ba
:1050f40035370000320000002f3e0000003c000065
:105104002f4e0000414e00004f3e0000256300007a
:10511400003800006134000031360000666200008f
:1051240031320000396200006661000063650000ee
:105134003900000000000000000000000000000032
:10514400000000000000000000000000000000005b
:10515400004e0000616e00006f3a00004b6e0000cc
:105164006f6300006b0000003c4300004f4d0000e3
:105174004d4100004e4400003e0000003c4d000044
:10518400414300003e0000003c5000004153000039
:10519400535700004f520000443e000000490000f5
:1051a400646500006e740000696600007900000008
:1051b4005265000073740000617200007400000006
:1051c40052650000636f00006e66000069670000ae
:1051d40075720000650000003c490000503e00006c
:1051e400003c00004e450000544d000041530000b7
:1051f4004b3e0000003c00004741000054450000c5
:1052040057410000593e00000025000030320000e4
:105214007800000049500000204100006464000050
:10522400722000003d200000257500002e2500009e
:10523400752e0000257500002e250000750d000058
:105244000a00000049500000204d00006173000076
:105254006b2000003d200000257500002e25000075
:10526400752e0000257500002e250000750d000028
:105274000a00000049500000204400004e53000082
:10528400202000003d200000257500002e25000090
:10529400752e0000257500002e250000750d0000f8
:1052a4000a0000004448000043500000204f000062
:1052b4006e0d000000440000484300005020000030
:1052c4004f660000660d00000049000050200000f9
:1052d4004e6100006d650000203d000020250000a7
:1052e400730d00000a00000000040000a312000077
:1052f400345600003c700000616e0000656c0000d4
:1053040020730000747900006c6500003d220000e9
:10531400626700003d370000463700004637000052
:10532400462200003e0000003c6c0000696400005e
:105334003e0000003c740000787400003e31000020
:105344002c310000352c0000302c000041440000ba
:1053540043250000753c00002f74000078740000a1
:105364003e0000003c740000787400003e310000f0
:105374002c3700002c3100002c3500003c2f00009d
:1053840074780000743e0000003c00007478000053
:10539400743e0000312c0000372c0000372c000034
:1053a400303c00002f740000787400003e000000c0
:1053b4003c740000787400003e3100002c31000081
:1053c4002c3100002c320000303c00002f7400000f
:1053d400787400003e0000003c7400007874000003
:1053e4003e3100002c3700002c3700002c34000024
:1053f4003c2f000074780000743e0000003c000064
:105404006c6900006e6500003e250000752c0000ec
:10541400257500002c250000752c00002575000062
:105424003c2f00006c6900006e6500003e00000027
:105434003c7000006c6f0000743e00002575000095
:105444002c250000753c00002f7000006c6f0000dc
:10545400743e0000003c00002f6c000069640000f2
:105464003e0000003c2f0000706100006e650000eb
:105474006c3e0000003c0000706100006e6500009e
:105484006c20000075700000646100007465000009
:105494003e0000003c740000787400003e310000bf
:1054a4002c7200002c3000002c250000372e000048
:1054b40034660000562000003c2f00007478000081
:1054c400743e0000003c000074780000743e00004c
:1054d400312c0000722c0000302c00002537000015
:1054e4002e340000666d0000412000003c2f0000b7
:1054f40074780000743e0000003c000073630000f8
:10550400726f00006c6c00003e250000752c0000da
:10551400257500002c250000752c00002575000061
:105524003c2f000073630000726f00006c6c00007d
:105534003e000000253800002e3000006675000093
:1055440073000000253700002e310000667500004e
:1055540073000000253700002e320000667500003d
:1055640073000000253700002e310000664800005b
:105574007a000000253700002e3200006648000043
:105584007a00000049250000753a00002536000025
:105594002e3300006600000049250000753a000023
:1055a40020450000727200006f7200000056000077
:1055b400257500003a250000362e000033660000f1
:1055c40000560000257500003a20000045720000d6
:1055d400726f00007200000050250000753a000050
:1055e400253600002e320000660000005025000021
:1055f400753a000020450000727200006f720000ce
:10560400003c0000706100006e6500006c0000004a
:1056140020730000747900006c6500003d220000d6
:10562400626700003d360000463600004636000042
:10563400462200003e000000207300007479000040
:105644006c6500003d220000626700003d440000dc
:105654004630000038300000302200003e000000d8
:1056640020730000747900006c6500003d22000086
:10567400626700003d3000004638000046310000fb
:10568400462200003e0000003c74000078740000d4
:105694003e3100002c6300002c3000002c5200002e
:1056a40054550000205b0000005d00003c2f00000a
:1056b40074780000743e0000003c00007478000020
:1056c400743e0000312c00006c2c0000312c0000d2
:1056d400413a0000003c00002f7400007874000080
:1056e4003e0000003c740000787400003e3100006d
:1056f4002c6c00002c3200002c4200003a00000008
:105704003c740000787400003e3100002c6c0000f2
:105714002c3300002c5200003a0000003c740000be
:10572400787400003e3100002c6c00002c34000022
:105734002c3100003a0000003c7400007874000032
:105744003e3100002c6c00002c3500002c3200008f
:105754003a0000003c740000787400003e31000000
:105764002c370000332c0000312c0000003c0000da
:1057740074780000743e0000312c000037330000c0
:105784002c3200002c0000003c74000078740000ef
:105794003e3100002c370000332c0000332c000075
:1057a400003c000074780000743e0000312c0000be
:1057b400373300002c3400002c0000003c7400003f
:1057c400787400003e3100002c370000332c0000b8
:1057d400352c0000003c000074780000743e00008a
:1057e400312c0000373300002c3600002c00000060
:1057f4003c740000787400003e3100002c6300000b
:105804002c3700002c0000003c7400007874000069
:105814003e3200002c6300002c3000002c500000ad
:1058240035370000322000005049000055200000a8
:10583400284500006e630000293c00002f7400001e
:10584400787400003e0000003c740000787400008e
:105854003e3200002c6300002c3000002c5000006d
:105864003537000032200000504900005520000068
:105874002853000074640000293c00002f740000c9
:10588400787400003e0000003c740000787400004e
:105894003e3100002c6300002c3200002c4d00002f
:1058a4006574000065720000204900006e700000fd
:1058b400757400002000000043740000733c000075
:1058c4002f740000787400003e0000003c74000057
:1058d400787400003e3200002c6300002c3300007a
:1058e4002c000000204800007a3c00002f740000c7
:1058f400787400003e0000003c74000078740000de
:105904003e3200002c6300002c3200002c410000c9
:105914003a200000003c000074780000743e00004f
:10592400322c0000632c0000342c0000423a0000aa
:10593400200000003c740000787400003e31000038
:105944002c310000322c0000362c00004469000089
:10595400674900006e730000202000002020000032
:1059640020440000696700004f7500007473000054
:105974003c2f000074780000743e0000003c0000de
:1059840074780000743e0000312c0000332c0000b9
:10599400372c0000003c000074780000743e0000c6
:1059a400312c0000383200002c3700002c0000009d
:1059b4003c700000616e0000656c00002073000004
:1059c400747900006c6500003d22000062670000ed
:1059d4003d42000046360000463000003022000000
:1059e4003e0000003c740000787400003e3100006a
:1059f4002c6300002c3000002c500000726f00005b
:105a0400766500002d490000742000005331000029
:105a14002f53000032200000566500007269000018
:105a2400667900003c2f000074780000743e00008a
:105a3400003c000074780000743e0000322c00002a
:105a4400632c0000322c00005761000069740000d0
:105a5400696e000067200000533100003c2f0000f5
:105a640074780000743e0000003c0000747800006c
:105a7400743e0000322c0000632c0000322c000025
:105a84005761000069740000696e0000672000001f
:105a9400533200003c2f000074780000743e000074
:105aa400003c000074780000743e0000322c0000ba
:105ab400313000002c3200002c2000002020000097
:105ac400533100003a200000003c000074780000cc
:105ad400743e0000322c0000312c0000342c0000f5
:105ae400533200002d530000313a00002000000022
:105af4003c740000787400003e3200002c31000039
:105b0400302c0000362c0000202000002053000020
:105b1400323a0000200000003c7400007874000059
:105b24003e3100002c6300002c3000002c5000009b
:105b3400726f0000766500002d490000742000009b
:105b4400536c00006963000065640000205300008a
:105b5400565000003c2f000074780000743e000092
:105b6400003c000074780000743e0000322c0000f9
:105b7400632c0000322c0000436f00006c6c0000aa
:105b840065630000746900006e6700002000000077
:105b9400206f000066200000003c000074780000c4
:105ba400743e0000322c0000632c0000322c0000f4
:105bb4005761000069740000696e0000672e0000e0
:105bc4002e2e00003c2f000074780000743e00006c
