:020000040000fa
:080000000002040000000000f2
:020000040000fa
:10040000ef5e27000e112a000e0188000000000098
:100410000c00070000df2900110020000f0007007a
:10042000000020000000e000020032000000020096
:1004300000000000b0e50200000000000040da000b
:100440000000fe0080d920000000e0000200320021
:10045000002020009001880000000600a102880012
:10046000800078000000eb001a003700e2804000b6
:1004700054a0b4009101ba00e280400054a0b4003e
:100480009102ba00e280400054a0b4000002eb00e8
:10049000472bde00f507b200a6018800602ce100c2
:1004a00008003a000049eb000201e80002003900b0
:1004b0003420ec0002f0a0008301e900f9ff3e00c7
:1004c000040037006128e100010032000082eb00e7
:1004d000040007001101ba000200e000e3ff3a0047
:1004e0000000060004d0a300e20f49001c00390000
:1004f000810278003549ba000201e80002003900a3
:100500003420ec0002f0a0008301e9000f0032006b
:100510002549ba000201e800020039003420ec004d
:1005200002f0a0008301e900080032000400e000ae
:100530000600320015c9ba000201e80002003900c5
:100540003420ec0002f0a0008301e9008180e80083
:1005500054a0b4000300e000e2ff3a0000000600ef
:100560009102ba00055978008301e900f7ff3200d3
:10057000c82ade00055978008301e900f3ff320044
:100580000400e000f1ff320011d9ba00eeff37009d
:100590000c63040000000000889fbe008a9fbe001c
:1005a0008c9fbe008e1f780001067800020778003d
:1005b000b0c226001004e00018003200a0c22600dd
:1005c0001080fb000008a300020032000200e000df
:1005d00069033a00a0c226001080fb000018a300a7
:1005e000020032000e00e00012033a00a0c2260012
:1005f0009081fb000328a300030032000e01780065
:100600000e00e000eb023a000338a3001b003200aa
:100610000e00e0001900320095023700a0c226004b
:100620001080fb000008a300020032000200e0007e
:100630003e023a00a0c226001080fb000018a30072
:10064000020032000e00e000e7013a00a0c22600de
:100650001080fb000028a300020032000e00e00022
:1006600090013a00a0c226001080fb000038a300d1
:10067000020032000e00e00039013a00a0c226005c
:100680009084fb000948a3001f0032000e00e00028
:100690001d003200cd003700374378000700780096
:1006a00034ef820004017800cfa1de000a522a0054
:1006b0001b0020008200d0008a02d000058140008b
:1006c0004220a8008b8149004200a9004220ae00d0
:1006d0004200a8000281d300a5018000a301880088
:1006e00006497800a50188008400e80031ef8a00ff
:1006f00031ef82008d8f5000fa0036008000eb0051
:1007000031ef8a00f70037000958a30002003200d9
:100710000e00e0005c003a00a0c226001080fb0042
:100720000068a300020032000e00e00006003a005c
:100730000e0078004f0778004f06be004f05be0040
:100740004f04be00000006008c0478000e05460031
:100750000e00e90067046000394078007856020016
:10076000000000008a8f5400f1ff32000800e00012
:1007700023003200e10f54001c003200e20f54004d
:1007800017003200e30f540012003200e40f54004f
:100790000d003200e50f540008003200e60f54004f
:1007a0000300320039407800785602000000000053
:1007b0003940780078560200000000003940780087
:1007c0007856020000000000394078007856020098
:1007d0000000000039407800785602000000000058
:1007e0003940780078560200000000003940780057
:1007f00078560200000000008a8f5400ccff3200bf
:1008000039407800090478007856020000000000a2
:100810003940780078560200000000001940780046
:100820008884e80078560200000000001940780033
:10083000e3044400785602000000000019407800ec
:10084000e4044400785602000000000019407800db
:10085000e5044400785602000000000019407800ca
:10086000e6044400785602000000000019407800b9
:10087000e704440078560200000000008a8f54000c
:10088000abff3200deff37000e0546000c80ea00a9
:100890000a004000670460008c047800394078004a
:1008a000aa570200000000008a8f54009aff32000d
:1008b0000800e00023003200e10f54001c00320069
:1008c000e20f540017003200e30f54001200320010
:1008d000e40f54000d003200e50f54000800320010
:1008e000e60f54000300320039407800aa57020096
:1008f0000000000039407800aa5702000000000004
:1009000039407800aa570200000000003940780002
:10091000aa5702000000000039407800aa570200e0
:100920000000000039407800aa57020000000000d3
:1009300039407800aa570200000000008a8f540056
:1009400075ff32003940780009047800aa57020088
:100950000000000039407800aa57020000000000a3
:10096000194078008884e800aa57020000000000bf
:1009700019407800e3044400aa5702000000000078
:1009800019407800e4044400aa5702000000000067
:1009900019407800e5044400aa5702000000000056
:1009a00019407800e6044400aa5702000000000045
:1009b00019407800e7044400aa5702000000000034
:1009c0008a8f540054ff3200deff3700fd3f2000c5
:1009d0000e0446000c80ea00080040006100600040
:1009e0008c0378003743780034ef820004017800ec
:1009f000cfa1de000a522a001b0020008202d00094
:100a00008a00d000018142004220a8008b81490069
:100a10004200a9004220ae004200a8000281d3009b
:100a2000a5018000a301880006497800a50188007f
:100a30008400e80031ef8a0031ef82008d8f500092
:100a400004003600060037000000e00012ff32000c
:100a500006003700888f5300fbff3a002aff37005b
:100a60008002eb0035ef8a00faff37003743780049
:100a700034ef820004017800cfa1de000a522a0080
:100a80001b0020000200d0008a00d00001014000bd
:100a90004220a8008b8149004200a9004220ae00fc
:100aa0004200a8000281d300a5018000a3018800b4
:100ab00006497800a50188008400e80031ef8a002b
:100ac00031ef82008d8f500003003e00888f53006d
:100ad000f1fe3a000cff37008002eb0035ef8a0090
:100ae000faff3700174378008003e80034ef8200f4
:100af00004017800cfa1de000a522a001b0020006a
:100b00000200d0008a00d000010140004220a8006d
:100b10008b8149004200a9004220ae004200a8009b
:100b20000281d300a5018000a30188000649780056
:100b3000a50188008400e80031ef8a0031ef8200cf
:100b40008d8f500003003e00888f5300d2fe3a0084
:100b5000edfe37008002eb0035ef8a00faff370028
:100b60008e0646000c80ea000d004000670460001d
:100b70008c047800394078007e54020000000000a8
:100b80008d8f5400bdfe32000800e00023003200cb
:100b9000e10f54001c003200e20f54001700320035
:100ba000e30f540012003200e40f54000d00320035
:100bb000e50f540008003200e60f54000300320035
:100bc000394078007e54020000000000394078006f
:100bd0007e54020000000000394078007e5402007c
:100be00000000000394078007e5402000000000040
:100bf000394078007e54020000000000394078003f
:100c00007e54020000000000394078007e5402004b
:100c1000000000008d8f540098fe320039407800ab
:100c2000090478007e54020000000000394078007a
:100c30007e54020000000000194078008884e8001b
:100c40007e5402000000000019407800e3044400d4
:100c50007e5402000000000019407800e4044400c3
:100c60007e5402000000000019407800e5044400b2
:100c70007e5402000000000019407800e6044400a1
:100c80007e5402000000000019407800e704440090
:100c90007e540200000000008d8f540077fe320069
:100ca000deff37008e0646000c80ea000d00400093
:100cb000670460008c04780039407800ac5302006f
:100cc000000000008d8f540066fe32000800e00036
:100cd00023003200e10f54001c003200e20f5400e8
:100ce00017003200e30f540012003200e40f5400ea
:100cf0000d003200e50f540008003200e60f5400ea
:100d00000300320039407800ac53020000000000bc
:100d100039407800ac5302000000000039407800f0
:100d2000ac5302000000000039407800ac530200d0
:100d30000000000039407800ac53020000000000c1
:100d400039407800ac5302000000000039407800c0
:100d5000ac530200000000008d8f540041fe3200b1
:100d60003940780009047800ac530200000000000c
:100d700039407800ac5302000000000019407800b0
:100d80008884e800ac53020000000000194078009d
:100d9000e3044400ac530200000000001940780056
:100da000e4044400ac530200000000001940780045
:100db000e5044400ac530200000000001940780034
:100dc000e6044400ac530200000000001940780023
:100dd000e7044400ac530200000000008d8f540073
:100de00020fe3200deff37008e0646000c80ea004f
:100df0000d004000670460008c04780039407800e2
:100e000096520200000000008d8f54000ffe320049
:100e10000800e00023003200e10f54001c00320003
:100e2000e20f540017003200e30f540012003200aa
:100e3000e40f54000d003200e50f540008003200aa
:100e4000e60f540003003200394078009652020049
:100e500000000000394078009652020000000000b7
:100e600039407800965202000000000039407800b6
:100e700096520200000000003940780096520200ad
:100e80000000000039407800965202000000000087
:100e90003940780096520200000000008d8f540007
:100ea000eafd3200394078000904780096520200c9
:100eb0000000000039407800965202000000000057
:100ec000194078008884e800965202000000000073
:100ed00019407800e304440096520200000000002c
:100ee00019407800e404440096520200000000001b
:100ef00019407800e504440096520200000000000a
:100f000019407800e60444009652020000000000f8
:100f100019407800e70444009652020000000000e7
:100f20008d8f5400c9fd3200deff370082864000fd
:100f30000c80ea000d004000670460008c0478001b
:100f4000394078008a510200000000008d8f540063
:100f5000b8fd32000800e00023003200e10f540029
:100f60001c003200e20f540017003200e30f54005f
:100f700012003200e40f54000d003200e50f54005f
:100f800008003200e60f54000300320039407800b8
:100f90008a51020000000000394078008a510200a6
:100fa00000000000394078008a5102000000000073
:100fb000394078008a510200000000003940780072
:100fc0008a51020000000000394078008a51020076
:100fd00000000000394078008a5102000000000043
:100fe0008d8f540093fd3200394078000904780059
:100ff0008a51020000000000394078008a51020046
:1010000000000000194078008884e8008a5102003e
:101010000000000019407800e30444008a510200f7
:101020000000000019407800e40444008a510200e6
:101030000000000019407800e50444008a510200d5
:101040000000000019407800e60444008a510200c4
:101050000000000019407800e70444008a510200b3
:10106000000000008d8f540072fd3200deff37005b
:101070008e0646000c80ea000d0040006704600008
:101080008c04780039407800d4540200000000003d
:101090008d8f540079fd32000800e00023003200fb
:1010a000e10f54001c003200e20f54001700320020
:1010b000e30f540012003200e40f54000d00320020
:1010c000e50f540008003200e60f54000300320020
:1010d00039407800d4540200000000003940780004
:1010e000d45402000000000039407800d4540200bb
:1010f0000000000039407800d454020000000000d5
:1011000039407800d45402000000000039407800d3
:10111000d45402000000000039407800d45402008a
:10112000000000008d8f540054fd320039407800db
:1011300009047800d454020000000000394078000f
:10114000d454020000000000194078008884e800b0
:10115000d45402000000000019407800e304440069
:10116000d45402000000000019407800e404440058
:10117000d45402000000000019407800e504440047
:10118000d45402000000000019407800e604440036
:10119000d45402000000000019407800e704440025
:1011a000d4540200000000008d8f540033fd320043
:1011b000deff37000e00e90067006000110020002c
:1011c000810f570010fd32000000e00015003200d2
:1011d000810f500010003200e20f50000d0032006d
:1011e000e30f50000a003200e40f50000700320005
:1011f000e50f500004003200e60f500001003200fd
:10120000210020008100e8008100e8008100e80062
:101210008100e8008100e8008100e800810f5100b2
:10122000f9fc3200e8804000810f5100f6fc3200ea
:10123000fcff37008e0646000c80ea000d004000df
:10124000670460008c04780039407800e0520200a6
:10125000000000008d8f5400e4fc32000800e00024
:1012600023003200e10f54001c003200e20f540052
:1012700017003200e30f540012003200e40f540054
:101280000d003200e50f540008003200e60f540054
:101290000300320039407800e052020000000000f4
:1012a00039407800e0520200000000003940780028
:1012b000e05202000000000039407800e0520200d5
:1012c0000000000039407800e052020000000000f9
:1012d00039407800e05202000000000039407800f8
:1012e000e0520200000000008d8f5400bffc32006d
:1012f0003940780009047800e05202000000000044
:1013000039407800e05202000000000019407800e7
:101310008884e800e05202000000000019407800d4
:10132000e3044400e052020000000000194078008d
:10133000e4044400e052020000000000194078007c
:10134000e5044400e052020000000000194078006b
:10135000e6044400e052020000000000194078005a
:10136000e7044400e0520200000000008d8f5400aa
:101370009efc3200deff37008c047800828640003d
:101380000c80ea000d0040006704600039407800de
:10139000f6510200000000008d8f54008dfc3200d9
:1013a0000800e00023003200e10f54001c0032006e
:1013b000e20f540017003200e30f54001200320015
:1013c000e40f54000d003200e50f54000800320015
:1013d000e60f54000300320039407800f651020055
:1013e0000000000039407800f651020000000000c3
:1013f00039407800f65102000000000039407800c2
:10140000f65102000000000039407800f651020059
:101410000000000039407800f65102000000000092
:1014200039407800f6510200000000008d8f540012
:1014300068fc32003940780009047800f651020057
:101440000000000039407800f65102000000000062
:10145000194078008884e800f6510200000000007e
:1014600019407800e3044400f65102000000000037
:1014700019407800e4044400f65102000000000026
:1014800019407800e5044400f65102000000000015
:1014900019407800e6044400f65102000000000004
:1014a00019407800e7044400f651020000000000f3
:1014b0008d8f540047fc3200deff37006900e100e9
:1014c000040035006d00e100030034000002b100ab
:1014d000010032000000050010000500020ab900fa
:1014e000001bb9000200b8008100420081004300e7
:1014f00000000600881f7800000478005001be003c
:101500004000be00040040008580480006014900fc
:1015100087814900009cbe000294be000400e100e7
:101520000588e1000690e1000798e1000200310023
:10153000680044001008e8004f047800000006002e
:10154000f4874700889fbe008a9fbe008c9fbe0024
:101550008e1f78000205be000004be00d4b79f00b5
:10156000e5b79f00f6b79f0087bf9f000000eb0024
:10157000c0b79f00b0b79f00a0b79f0090b79f0073
:1015800080b79f000d042000bfb097004fb09700b8
:10159000000140000000e0000f003d004f08de00a9
:1015a00000007100c0b79f009e00070001003d00d1
:1015b00012002000a100070001003d0012002000e1
:1015c000a6000700b1000700b60007000f004000aa
:1015d000c8ff0700220037004f08de000006710038
:1015e000ccb79f008f00070001003d0012002000d3
:1015f0009200070001003d00120020009700070044
:10160000a20007000fb297009fb297002fb3970078
:10161000bfb39700a90007000000520081805a0064
:1016200002015b0083815b0080b79f0091b79f0040
:10163000a2b79f00b3b79f000007eb009f00070011
:101640000020e10001a8e10002b0e10003b8e100e0
:10165000010031001e0020000e005600c0b79f00a0
:101660004fb297000400e000070035001000200092
:10167000010020006011b800080470008984700027
:101680000a0571008b8571008d06e900beff3a00e6
:101690000400e00003003d00820007000f0040004e
:1016a00094ff07004fa897000000e00004003a00f4
:1016b0000fb497009fb497002fb59700bfb5970060
:1016c000940007004f0778004f06be004f05be008c
:1016d0004f04be004f01b10000000600881f7800d3
:1016e00018002000881f780095ff07008f87e90009
:1016f0004f04780000000600801feb0090ff0700f9
:101700008f87e90000000600889fbe008a9fbe0008
:101710008c1f78006e00070007003d007300070073
:10172000e00f5b00e08f5b0007003d003200070028
:101730000006eb00040037003400070002003d0003
:101740002a0007001c00200072000700e3ff0700ca
:101750000203be000002be000c00e00001003200e7
:10176000220007000400be000601be004f067800fc
:101770004f05be004f04be0000000600889fbe005b
:101780008a9fbe008c1f78005100070005003d00b5
:1017900056000700e00f5b00e08f5b0006003d0095
:1017a000040037001900070003003d006000b80086
:1017b0006011b8001000070056000700ceff0700b8
:1017c0000203be000002be000c00e0000100320077
:1017d000060007000400be000601be004f067800a8
:1017e0004f05be004f04be00000006006000b800b8
:1017f0006011b800000037000402500085825800d4
:101800000603590087835900000006000006eb001c
:10181000e00f5200e08f5a00e00f5b00e08f5b00aa
:10182000000006000180400090b79f000001eb001f
:101830008fb097000100e000000006000200700079
:1018400090b79f000180400080b79f000001eb002f
:10185000ffa897000100e0000000060002007000f1
:1018600080b79f00018040006faa9700cf20de0064
:1018700001007000f0af9f00040242002500070045
:101880004f18de000002720000000600e4af9f0067
:101890000804440089844c000a054d008b854d00e6
:1018a000000006003fb29700cfb297005fb39700e9
:1018b000efb3970000fe2f00000006003fb0970036
:1018c000cfb097005fb19700efb19700000006001e
:1018d0000205be000004be00e00f5000e08f58007b
:1018e000e00f5900e08f5900000006006000b800ca
:1018f0006011b80008045000898458000a05590096
:101900008b8559001c002000e00f5200e08f5a0028
:10191000000006000800be000a01be00000006002c
:101920006022b800060220000000d0008180d200b2
:101930000482d2008582d2000000a0000202520080
:1019400083825a00030031000202420083824a006f
:101950000000a1000603e900f3ff3a0000000600c2
:10196000efff07000400be0000000600f4ff2f0098
:101970003804370003f0a200889fbe008a9fbe0093
:101980008c1f78004e040700550433006450e100ba
:101990004f0032006420e1005200320003826c00ec
:1019a00007003b000905d0000306d000820f540059
:1019b0000c065d0002003900020032008901780047
:1019c000030678008582550004003d000003fd00f9
:1019d0008103fd008502ea008b854200840f7200be
:1019e00002003b0060001000e08018006011b800a9
:1019f0000005eb007a28e1000a00390006007800b3
:101a0000c75ddd00f707b200878075002d00370045
:101a1000828171000a017800610560008180d10037
:101a20000080d3008502e900f9ff3b000604400076
:101a30008784480002003b0060041400e0841c001e
:101a40000988a300070032008a8171008281710039
:101a5000610164008904d1000884d3008b05e8008b
:101a6000170037000978a30013003a000b00e000cc
:101a7000130034008b05e9000804440089844c00fd
:101a80000a4474000978a3000d003a000b00e0003e
:101a9000070034008b05e9000804440089844c00e9
:101aa00001003a000b0020000978a300f7ff320084
:101ab0000001eb0002003700828171000a0178000a
:101ac000170407000cf0a70001f0a0000d04370078
:101ad0006420e10002003a00838f6c000d043300a3
:101ae0000801be000200be00060437008103780032
:101af000310407000001be006000b8000478a300b4
:101b000013003a006220e10015003e000d0039008c
:101b10008301d1000281d3008180d3008301d100f1
:101b20000281d3008180d3008301d1000281d300e0
:101b30008180d3000538b000c42add00f300b20074
:101b40008381720007f0a70003f0a00000000600e8
:101b5000f3ff2700f2ff2f006110b900fbff3700f1
:101b600003ff2700f7ff37002800fa00889fbe0018
:101b70008a9fbe008c9fbe0007067800878669009a
:101b80000c003b00030478008704780008f0a100f3
:101b900009f0a100840f5000858f5800860f59006e
:101ba000890f5c00030033000cf0a20001003a0032
:101bb0000cf0a100150407006400e1005f00320092
:101bc000780147006408e100610032006c014700c1
:101bd000748557003200be001201be003a04be00f8
:101be0001a05be001e039000be0a90008503530034
:101bf00006003d000004fd008104fd000205fd001b
:101c00008305fd008703ea00050378000df8a300b3
:101c10000400320060041400e0841c0060051d0014
:101c2000e0851d006022b8007d0320000d38e10032
:101c30008006eb000b0039004433dd00f300b200f6
:101c40008301730039003700848272000d0278002e
:101c5000e10664008b85d1000a85d3008984d30016
:101c60000884d3008703e900f7ff3b000800400029
:101c7000898048000a0149008b81490004003b002b
:101c800060001000e080180060011900e081190078
:101c90000358a300090032008d8272008482720012
:101ca000610260008301d1000281d3008180d300f2
:101cb0000080d3000603e8001b0037000348a300a0
:101cc00017003a000600e000170034000603e900a0
:101cd0000d00a30000004800818048000201490077
:101ce000838149000348a3000f003a000600e0008a
:101cf000090034000603e90000004000818048002c
:101d0000020149008381490001003a000003eb0011
:101d10000348a300f5ff32006022b800020037003c
:101d20008482720061826600d103070003f0a10083
:101d30000cf0a70003f0a000c803370064014700bf
:101d40006408e10002003a000df8a300c0033a0065
:101d50003200be001201be00c00337001400fa00ba
:101d6000889fbe008a9fbe008c9fbe000005be00fb
:101d70000206be00680047000c90be000a90be003c
:101d8000e70307006400e1001a00320016003e007d
:101d90006100e1001a0032006e049000fe04900021
:101da0000e0b90009e0b90006011b8009e059000f5
:101db0000b38b100d50120008281710061016400ff
:101dc0008703d1000683d3008984d3000884d3001d
:101dd0008502e900f8ff3a00510307000df0a70063
:101de00001f0a0009d033700f1ff2700f0ff2f0056
:101df0009a03370001f8270000002000f7ff3700a2
:101e00006000b800f5ff370007f0a20056ff37006a
:101e10000001be00680307000470a70003f0a100e2
:101e200003f8a30013003a006509b1001000320066
:101e3000090035006928e100020035000100280092
:101e40000000050000004000818048008502e90094
:101e5000fcff3a0000000600f88f42000500350044
:101e60008100d1000080d3008502e800fcff3a0029
:101e7000000006008000eb0000000500889fbe0007
:101e80008a9fbe00010578000100e00004003500d3
:101e900008003c000000e000200032000500370090
:101ea00060001000e080180002003b0001f02c00f0
:101eb0001a0037000004be006011b8006b09200052
:101ec0000982cf00020039000882cf000441b0002f
:101ed000694252000e00320008003b00828171000e
:101ee000610164008904d1000884d3008b05e800f7
:101ef0000442e800f9ff3a000500370008044400f6
:101f000089844c008b05e9000442e900fbff3a009c
:101f1000030307000af0a70001f0a0004f05be0070
:101f20004f04be0000000600889fbe008a9fbe00ce
:101f30008c1f7800e2020700e902330003866c0080
:101f40006450e100240032006420e10027003200e8
:101f50006150e100220032006120e10021003200e6
:101f60008b854200eb07b1000134b800003ab8009d
:101f70000804420089844a00013ab8000030b800e1
:101f80008880400009014a0004003300000040003e
:101f900081804800020149008b05e900c909dd0084
:101fa000830170000100320013002000c814de001d
:101fb0004814dd004709de001200b200c808de0048
:101fc00008847000d602070001f0a1000cf0a70001
:101fd00001f0a000cb0237006120e100cd02320009
:101fe0000801be000200be00f7ff37006150e100ab
:101ff000fcff3a00c7023700809feb006f03070029
:102000008f87e9000000e000000006001400fa00dd
:10201000889fbe008a9fbe008c9fbe000004be0049
:102020000205be00680047000a90be000890be008e
:102030003b0307000070a7000bf0a1000bf8a30002
:1020400020003a009e0990000e099000fe009000ca
:102050006e0090009e029000344320008482520063
:10206000fe0232000a003c00b4fc2f000428e1000c
:10207000140034008301d1000281d3008180d30099
:102080000080d3008502e800faff3a00f30237002f
:10209000b40020000428e10007003c0000004000dc
:1020a0008180480002014900838149008502e900de
:1020b000faff3a00e902370003002800020020007e
:1020c000010037006011b8006000b800e30237007b
:1020d000889fbe00830478000300e0002c003500d8
:1020e00003003c00008270000402710026003200f0
:1020f00036432000c50020008383cf000a0039004a
:102100000541b1008283cf00070039000541b100cd
:102110008183cf00040039000541b1008083cf00e6
:10212000010039000541b10085c353006022b800a9
:10213000120032000a003b008482720061026000db
:102140008301d1000281d3008180d3000080d300bd
:102150000603e8008743e800f7ff3a00070037006e
:10216000000040008180480002014900838149004d
:102170000603e9008743e900f9ff3a00bc020700c3
:1021800009f0a70003f0a0004f04be000000060005
:1021900060001000e080180060011900e081190063
:1021a000d3ff3b00033e2c00f7ff37002800fa0066
:1021b000889fbe008a9fbe008c9fbe0003866b0076
:1021c000920207000028a30064003a000128a3003f
:1021d00067003a000008a30062003a000108a3006b
:1021e00065003a001e009000be0890008106400085
:1021f000ed3fb100f4805700ee019000111ab800d5
:102200008e099000311bb8009e099000311cb80067
:10221000511db800f485570046000700fe019000ec
:102220003a0007008b85e8003e0007008e09900009
:1022300040000700ee019000340007008b85e800a5
:10224000380007008e099000400007009e099000aa
:102250001b18b800890440000a854800fe01900060
:10226000340007008b85e80038000700ee0190007d
:10227000300007008e0990001b18b8008904400048
:102280000a8548000a98a30008003a0004024200a8
:1022900085824a0006034b0087834b0008044c00ec
:1022a00089844c000a054d008d06e9008482720085
:1022b000850273004c3add00850272000100320095
:1022c00015002000443ade001400b2004538de005c
:1022d000cb45dd000b007000c540de00cb4ddd00be
:1022e0008b8070004549de00cb55dd000b0171008d
:1022f000c551de000d0378005d02070003f0a10068
:102300000cf0a70003f0a000540237001b18b8001f
:102310008502400006834800e0834b0060044c00c7
:10232000070037001b18b8000603400087834800e9
:10233000faff37001b18b8008703400008844800e4
:10234000e0844c0060054d00000006001b18b8003a
:102350000804400089844800faff37000108a30000
:102360003b023a005800be005801be00e3ff3700b0
:102370000008a30036023a0009047800f9ff37008c
:102380001400fa00889fbe008a9fbe008c9fbe008a
:102390000004be000205be00680047000a90be00af
:1023a0000890be005e0207000070a7000bf0a100bd
:1023b0000bf8a30016003a009e0290003043200064
:1023c00080825200b0fe2f000028e1000d003c008a
:1023d000b0fc2f000028e1000d0034001e09900021
:1023e0008e0890007e0090000501b0000201d1002f
:1023f0008180d3000080d3008502e800fbff3a0013
:1024000016023700010028000000200013023700e8
:102410006000b800110237002800fa00889fbe0053
:102420008a9fbe008c9fbe0003866b00f7010700e9
:102430006400e100440032006408e1004a00320018
:102440006100e100460032006108e100490032000d
:10245000ec0647006000b8003d02be003d03be0030
:10246000f48657006011b8003d04be003d05be0073
:102470007d0320000b0037000000a0008d06e9005e
:10248000130032000402420085824a0006034b001a
:1024900087834b0000004000818048000201490012
:1024a000838149000802520089825a000a035b00b6
:1024b0008b835b00f0ff3b000802420089824a00e8
:1024c0000a034b008b834b008d06e900edff3a00b9
:1024d0008482720086827200f707b20087827200df
:1024e00001003200150020001e0490003e0b9000f9
:1024f00006035400e63fb0000368a3000700320063
:102500000000a7000500a0008301d1000281d300d4
:102510008180d3000080d3000603e8008301d1004e
:102520000281d3008180d3000080d3000002eb0041
:102530000482d200ce01070003f0a1000cf0a70036
:1025400003f0a000c5013700640247006408e10001
:10255000bf0132003400be003401be00f6ff370078
:102560006108e100ba0132006011b8006000b800f3
:10257000f1ff370003ff270002002000fbff3700b8
:102580000001be008c0107000470a70003f0a10049
:102590006509b100160032000d0035006828e10021
:1025a00006003500f0ff2f00f1ff27000300e000d8
:1025b00013003b000100280000000500000040005f
:1025c000818048008502e900fcff3a0008003700de
:1025d000f88f420002003c008000eb000000050084
:1025e0008100d1000080d3008502e800fcff3a00a2
:1025f0000300e00002003b0060001000e0801800d3
:1026000000000600889fbe008a9fbe008c1f7800d5
:102610002b0107003201330003866c006450e10097
:102620002e0032006420e100330032006150e100ee
:102630002f0032006120e100310032008585550015
:10264000eb07b00009002000080420000500370057
:102650000804440089844c000a003100060343004a
:1026600087834b000001530081815b00f8ff33003a
:102670000203be000800a0000804440089844c0046
:10268000f6ff3900c639dd00830173000100320016
:10269000130020008904d1000884d3000998a30006
:1026a000050032000800a7000300a0008904d10043
:1026b0000884d3008b05e8008904d1000884d30086
:1026c0000001eb000281d2001501070001f0a1001a
:1026d0000cf0a70001f0a0000a0137006420e1001f
:1026e0000c0132000801be000200be00f7ff3700f7
:1026f0006120e100070132006000b800f3ff3700fd
:102700000000200001f82700f0ff37008f1fd100e4
:10271000aa0107008f87e9000000e0000000060022
:1027200014002000cb0037000003be002201070088
:102730006011b8000470a70007f0a10007f8a3001b
:1027400017003a006509b1000d0032000d00350098
:10275000860220000628e10003003500030028005f
:102760006000b800020005000000400081804800c1
:1027700002014900838149008502e900faff3a001d
:1027800000000600f88f4200050034008100d100ef
:102790000080d3008502e800fcff3a00000006003c
:1027a0006011b8008000eb0000000500889fbe00ab
:1027b0008a9fbe008c1f78000205be000004be0088
:1027c0000006eb00e00f5000e08f5800e00f5900ca
:1027d000e08f590007003d006000b8006011b800ac
:1027e00008045000898458000a0559008b85590057
:1027f0001c002000e00f5200e08f5a00e00f5b0049
:10280000e08f5b0002003d000f0007000c00a200fb
:102810000800be000a01be00910107000203be00cd
:102820000002be000c00e0000100320006000700bc
:102830000400be000601be004f0678004f05be0032
:102840004f04be00000006006000b8006011b80030
:1028500004025000858258000603590087835900fe
:10286000000006004f89de008201780018fe370064
:10287000889fbe008a9fbe00030578000300e00029
:10288000050035000b003c0000827000040271005e
:10289000300032000700370060001000e0801800b0
:1028a00060011900e081190002003b0001f02d00d9
:1028b000280037000004be000200be006011b8000e
:1028c0006b092000950220000182cf000a00390028
:1028d0000541b1000082cf00070039000541b10079
:1028e0000982cf00040039000541b1000882cf0001
:1028f000010039000541b1000542520012003200ca
:102900000a003b0082817100610164008100d100f6
:102910000080d3008984d3000884d3008b05e800ad
:102920000442e800f7ff3a000700370008044400bb
:1029300089844c0000004800818048008b05e90034
:102940000442e900f9ff3a00750007000af0a70009
:1029500001f0a0004f05be004f04be0000000600bd
:10296000839f68000100e00002003d00600010004d
:10297000e08018000300e00002003d00600111004b
:10298000e0811900e6fb07004f00e00002003b0079
:1029900060001000e0801800000006001400fa003b
:1029a000889fbe008a9fbe008c9fbe000004be00b0
:1029b0000205be00680047000a90be000890be00f5
:1029c000d70007000070a7000bf0a10030432000e3
:1029d0009e02900080825200b0fe2f000028e1008d
:1029e00011003d00b0fc2f000028e100150034006c
:1029f0001e0990008e0890007e0090000501b00036
:102a00000201d1008180d3000080d3008502e8005c
:102a1000fbff3a000b00e00090003b00600010005c
:102a2000e08018008d003700f0ff2f00f1ff270035
:102a30000b00e00089003b0001002800000020009e
:102a4000860037006000b8008400370004002000d2
:102a500000003700889fbe008a9fbe00841f780058
:102a6000170007004f00780011003300f0ff2f001f
:102a7000838f6c0006003b00040565000a00a70078
:102a80000800370009f0a6001000200008003700f9
:102a9000820f5400838f5c00030039001000200077
:102aa00001003e000000200009f0a7000000ea003d
:102ab0004f05be004f04be000000e000000006000d
:102ac0000004be003c0007000003be000405be0079
:102ad0000200be0038000700844f750000000600a9
:102ae0000200be006450e100050036006420e100f1
:102af000020036000968a30001003a000800be0089
:102b00000160a0004f0678004f05be004f04be00d4
:102b100000000600f0ff2f00f1ff2700f9ff37004b
:102b200081002000618055000b003d000b0020005b
:102b300061fe2f000100e1001d0034008281710060
:102b4000610164008904d1000884d3000000e8001a
:102b5000faff3a0071002000610064000300700079
:102b6000020060000900320061044400e0844c006f
:102b70000988a500050032008b05e8006808e1001f
:102b800002003a008904d1000884d300f20f20002b
:102b90000258e10005003d00c75ddd00f907b20005
:102ba0008980750008007800000006000bf82700f7
:102bb0008b00780000000500c70ade00f107b200b4
:102bc000f50fb20008003200e1cf420002003200ef
:102bd0000170a00024000500810f70000100320088
:102be0000408050044000500810f700002003a004f
:102bf000140005008502e9000000400081c0480083
:102c0000fcff3b000170a0002400050068044700a1
:102c10000294be000094be00fc0447008694be00ef
:102c20008494be00090078003d0007000800780089
:102c30003b00070099007800814f70000b003b00bb
:102c40000800be00a80007004f00b10003003700d5
:102c5000f3ff2700f2ff2f006110b9004f06be00fe
:102c60004f05be004f04be000080fa0000000600c1
:102c70001800200057002000080453000d003d00fc
:102c80000600200097fc2f000740e1001e003400e2
:102c900084827200610260008301d1000281d3004e
:102ca0008180d3000080d3000804e800f8ff3a00d8
:102cb00047002000610460000504740004046400ff
:102cc0000d00320061004000e080480060014900d2
:102cd000e081490003b8a500070032000603e800c0
:102ce0006538e10004003a008301d1000281d3007d
:102cf0008180d3000080d300f87f20000830e100fd
:102d000003003500080378006000b8006011b800c7
:102d10004433dd00f300b2008301730000000600bd
:102d2000800078005002be005003be004439de002f
:102d3000f700b200f37f20000301610009003200b8
:102d40000218e10016003a00850172008301730049
:102d5000838173000008200015003a004000200025
:102d600013003700850172008301730083817300b3
:102d700005003a0004a8be0006a8be00100020000e
:102d80000b0037000201e9000402420085824a007c
:102d900006034b0087834b000748a300f9ff32006e
:102da0000740a00004a8be0006a8be002000200026
:102db000800098009200980000000600889fbe00e6
:102dc0008a9fbe008c9fbe000404be000605be00a4
:102dd000809fbe00829fbe0051000700040678005d
:102de0000800be000a01be004d00070084067800fe
:102df0004f03be004f02be008d4f76007fb097009c
:102e000013003300f0ff2f008b8f6b0006003b0098
:102e10000d0666000c00a7000a00370007f0a600a8
:102e2000100020000a003700880f5200898f5a00d6
:102e30008a0f5b008b8f5b000300390010002000bd
:102e400001003e000000200007f0a7000000ea009b
:102e50004f06be004f05be004f04be000000060036
:102e6000889fbe008a9fbe008c9fbe000404b800ed
:102e70000506b8008904460060854e000606b800c5
:102e80000a054600e0854e000706b8008b0546009f
:102e9000040eb800890446000a854e00e0854d0006
:102ea000050eb8000a0546008b854e00060eb800d8
:102eb0008b0546000416b8000a0546008b854e00b7
:102ec0000516b8008b054600041eb8008b054600a9
:102ed0000800be000a01be004f06be004f05be003e
:102ee0004f04be0000000600e48240001078a300fa
:102ef00007003200640240001178a3003400be00d5
:102f00001401be00040032000330a70000000600d8
:102f10003500be001501be000330a0000000060011
:102f200005ff270005826100070032000428e10048
:102f300001003200240005000600070001003a00ed
:102f4000440005000408050002000700f9ff3a00ec
:102f5000140005006f82610081027000850271001b
:102f60008502720000000600801feb0093ff07003f
:102f70008f87e9000000e000000006001400fa005e
:102f8000889fbe008a9fbe008c9fbe00040678000a
:102f90000004be000205be00680047000a90be00a3
:102fa0000890be005eff07006200e1000800be005e
:102fb0000a01be00040020000b003a001e0290002f
:102fc000e43fb1006e009000fe0090000e099000fa
:102fd0009e099000f300b20005fe23008581710078
:102fe0000bf0a70003f0a000040e78001bff3700d1
:102ff0000602a8000000060006c2bf000008a300e9
:10300000fdff3a0006c2bf000028a300faff3a0005
:1030100006c2bf000038a300f7ff3a0006c2bf0097
:103020000018a300f4ff3a0006c2bf000048a30046
:10303000f1ff3a0009c2bf000068a300eeff3a00aa
:10304000000006000642a800000006000080fb0009
:10305000101088000080eb000842e20008003500f4
:1030600009c2bf000068a300fdff3a00e2ff0700ad
:10307000e0ff2f000942e200010035000000eb00f4
:10308000000006008000780020c2bf00664060009b
:10309000e64f500001003200f10fb200211188000c
:1030a000000006008000780030c2bf00664060006b
:1030b000e64f500001003200f10fb200a11188006c
:1030c0000000060080007800b0c2bf0066406000cb
:1030d000e64f500001003200f10fb200a115880048
:1030e00000000600000278008001eb0002003700bb
:1030f000015a78008301e800828f5100fcff3a00fa
:1031000000000600800078003004e000feff3a0076
:10311000010050000000e90000000600010020004e
:10312000408e8b00518e8b0011c0b300601c2700b5
:103130000148780000000600621c27001204e0002d
:1031400006003a001000200001002000408e8b0095
:10315000518e8b0010c0b30000497800d2e62400e5
:10316000631c2400408e8300518e8300dbf807002f
:103170000001be0090032300010020000200400077
:1031800083804800408e8b00518e8b004088de008b
:10319000cf80de0000f0a1000000060010417800a2
:1031a000814f5100040032000000e8000204e000fa
:1031b000faff3a000000eb00000006000400fa00ed
:1031c000e0bf9f00e4815700812978000002eb00f6
:1031d0000f0037006fb89700904078007fb89700d5
:1031e000104078000402e80080cf50000400320054
:1031f0008180fb000080fb0000805000070037004a
:103200006fb897000000e800e0bf9f009309e80056
:10321000820f5200efff3a000000eb000080fa003e
:1032200000000600000278008001eb000200370079
:10323000315a78008301e800828f5100fcff3a0088
:1032400000000600800178000001780001003700ce
:103250000201e8001204e000fdff3a00314078006e
:10326000005978000004e000fcff3a0003007800f9
:103270000000060010417800b141510003003a00ff
:103280000000e8000204e000faff3a000300fb003f
:1032900000000600f0874700889fbe008a9fbe009e
:1032a0008c9fbe008e1f78000006780081bf9f00b3
:1032b0000100e000030032008008780001003700c0
:1032c0000c06e8001c4478000800fb007bf80700af
:1032d000800078000000e000f9ff3a00d0c2b3009f
:1032e000804f540003003a000c06e8001ec0b300f3
:1032f00005003700b0c2b300804f540001003a000f
:103300000c06e800014778000000eb00a0b79f0022
:10331000b0b79f006000b8006011b800c0b79f0050
:10332000d1b79f00e2b79f00f3b79f000e48a300fc
:1033300005003a00e0c2b3009c4f100002003a00c2
:103340000e44a000300037009c4678000d00fb00c2
:103350000003b100e90f50002d003e000e14a00044
:103360000e00fb002fb19700f20f51002100320038
:103370000048a30003003200bfb197008301e900b9
:10338000b3b79f002fb097000000e800a0b79f00e0
:103390006022b80006002000470224004fb09700ca
:1033a000dfb097006fb19700ffb197007ffb070078
:1033b0000004be000205be0001cdb30001c04600fe
:1033c0000080fb00cf80de0026fd07000002be006b
:1033d0000203be000800be000a01be00e2f90700b9
:1033e000c0b79f00d1b79f00e2b79f00f3b79f001f
:1033f000050037000048a30003003a003fb19700e2
:103400000201e800b2b79f000c06e800c7ff3700d2
:1034100050c6b30080cf5600040032000001eb001c
:1034200050c4b30080cf560032003a008c01e8004f
:1034300093407800d0c2b30080cf500002003a0021
:103440000e34a00003003700b0c2b30080cf50009c
:1034500003003a008c81e800010037008301e80096
:103460009340780005c3b30085cf5000fbff3200c6
:103470000100fb0004fd2f0004004000e90f500094
:1034800003003600030678000001eb001600370049
:1034900005c050000081fb000306e8009c40780056
:1034a0000100fb0004004000e90f50000e003e0048
:1034b000ea10b80085c050008180fb000101400087
:1034c0000386e8009c4178000300fb0004004000f4
:1034d000e90f500004003e00ea11b80005c0510099
:1034e0000080fb00000141000e38a3000100320003
:1034f0000201ea00bfb19700828641000fb8970031
:103500000000e000030032000e18a30001003200aa
:103510000c0878004fb09700dfb097006fb19700ac
:10352000ffb197000004be000205be006022b80093
:103530006033b80075fc07006022b8006033b80043
:103540000000e000ad00320030c02f00808f560038
:1035500003003d0020022000608f8b00a700370091
:1035600000402000808f56000e0034002002200012
:10357000608f8b000e08a30005003200f4ff2f00bf
:10358000f5ff2f00f6ff2f00f7fe2f009b003700fe
:10359000f4ff2f00f5ff2f00f6ff2f00f7fe2700a6
:1035a000960037000d00e00042003d000d04ea00e7
:1035b0000e003700d4372c0045592200d69a24003b
:1035c000274b25004fb09700dfb097006fb19700f1
:1035d000ffb1970090fb0700c0b79f00d1b79f00d5
:1035e000e2b79f00f3b79f004806b1003006200005
:1035f000800f5400efff3c000e0037000400200055
:1036000005002200f6052a00272024004fb097006d
:10361000dfb097006fb19700ffb197007efb070006
:10362000c0b79f00d1b79f00e2b79f00f3b79f00dc
:103630006a045400e90f5400f0ff3c008004eb00e2
:103640000d0037006022b800060020004702240069
:103650004fb09700dfb097006fb19700ffb19700b0
:103660006dfb0700c0b79f00d1b79f00e2b79f0076
:10367000f3b79f008904e800888f5400f1ff3a00f7
:103680004fb09700dfb097006fb19700ffb1970080
:103690000004be000205be006022b8000600200043
:1036a0000701200019fc07000000e0004e003d006b
:1036b000430037000d00e0000f003c004a003700d7
:1036c000d4372c0045592200d69a2400274b2500d8
:1036d0004fb09700dfb097006fb19700ffb1970030
:1036e000b2fa0700c0b79f00d1b79f00e2b79f00b2
:1036f000f3b79f004d06b10030062000808f5600c2
:10370000efff3c000e0037000400200005002200ff
:10371000f6052a00272024004fb09700dfb097005d
:103720006fb19700ffb19700a0fa0700c0b79f00e4
:10373000d1b79f00e2b79f00f3b79f00ea8656001b
:10374000e9cf5600f0ff3e000004eb000d0037000b
:103750006022b80006002000470224004fb0970006
:10376000dfb097006fb19700ffb197008ffa0700a5
:10377000c0b79f00d1b79f00e2b79f00f3b79f008b
:103780000804e8008d0f5400f1ff3a004fb0970095
:10379000dfb097006fb19700ffb197000004be0043
:1037a0000205be00f4ff2f00f5ff2f00f6ff2f00eb
:1037b000f7fe270010fa07000000e0000a003400be
:1037c0000e08a300040032006022b80006002000aa
:1037d00007012800090037006022b8000600200019
:1037e00007012000050037000e08a3000100320089
:1037f0000bf0a2000802be000a03be000400be00d7
:103800000601be004f0778004f06be004f05be0000
:103810004f04be000f01b100000006008000eb0065
:103820009cfe37008000780000c2b3000100370022
:103830008100e80011417800804f5100fcff320008
:10384000e94f5100faff3200d0c2b300804f51005f
:1038500003003a008100e80014c0b30005003700ff
:103860000042eb00b0c2b300804f510001003a00ab
:103870008100e8008001eb0005fd2f000400370007
:10388000ea18b80002004000850140008100e8000d
:103890001101fb0005004100e90f5000f8ff360060
:1038a0000404e000010032008301ea000300780014
:1038b00000000600889fbe008a9fbe00800078003e
:1038c00000c2b3000100370089007800810478004d
:1038d00039447800804f5400fbff3200e94f540018
:1038e000f9ff3200d0c2b300804f540004003a0008
:1038f000194478008184e8001ac0b300060037003c
:103900000045eb00b0c2b300804f540002003a0003
:10391000194478008184e8006022b8000a0037006a
:10392000a2002000030020000400be00ebf6070008
:103930000b4144000281fb00030020000002410013
:1039400081824900394478000880fb000bfd2f007c
:103950000b004000e90f5000f1ff36000a04e000c0
:103960000200320060021200e0821a000400be0071
:103970004f05be004f04be00000006000c00fa0018
:10398000889fbe0000047800cfb09700f0ff2700aa
:10399000d0bf9f008004eb0099bf9f0088bf9f00ad
:1039a000a8bf9f00200c2000b0bf9f007881570067
:1039b00070805700110107000fb897000948780080
:1039c0000fb8970008045000080078004f04be00ac
:1039d0000080fa00000006008001780000017800f5
:1039e00031407800005978000004e000fcff3a0004
:1039f0000300780000000600800278008001780053
:103a000002027800070037000402e9003140780024
:103a1000805978000004e00002003a000000eb004a
:103a20000600370002804200808f5100f6ff3a0006
:103a3000faff37008059eb000000e800840f5000c7
:103a4000fcff3a0005007800000006000000fa00c4
:103a5000cfb8970068815700e0122700e700070001
:103a60000080fa0000000600889fbe000004be002f
:103a70000d00370009007800a2fd07000001780062
:103a80000800be00310007000000e00002003a001c
:103a900008007800090037009900fb000800e800e2
:103aa000befd0700000478000800e00002003200bc
:103ab0001804e000efff3a000000eb004f04be00e6
:103ac00000000600e112270032003700889fbe0088
:103ad0000004be00060037000804e8000000fb00f8
:103ae000890078002b000700e10f4000040032003d
:103af000184078000004e000f7ff3a000000eb00f7
:103b00004f04be0000000600881f7800e112270065
:103b1000eeff070000047800e1122700a00020005b
:103b20001c000700080078004f0478000000060021
:103b30000000fa00cfb8970068815700e012270014
:103b4000ae0007000080fa00000006008101780046
:103b50000002eb000c003700904078000104e00008
:103b6000030032000402e80093cf5000040032004a
:103b70008180fb001380fb000080500000000600e5
:103b80000000e8008301e800820f5200f2ff3a00d3
:103b900000000500889fbe00000178000104780045
:103ba000b10090000118a3003d0032000198a3006d
:103bb00003003a00180090000000e00038003a00ce
:103bc0000190a0003104980082047800f90fb2003f
:103bd000180090000000e00002003a002800900069
:103be000000c7800ea8f540006003a00380090007c
:103bf0000078a30003003a0088007800d00020007d
:103c0000e4ff07009800900058009000808f50005b
:103c10000b0032000100e800100498001800780042
:103c200009587800000c780011c0b300001d27006f
:103c300001487800ea8f540006003200190037006e
:103c40008800780009407800630507008004780048
:103c500014003700380090000088a30011003200e3
:103c600018019000a8009000480090004af2070058
:103c700098009000810f500004003200380090003e
:103c80000003b300300498008084eb000000eb00d8
:103c90001004980028009000000c78000100370004
:103ca0008084eb00090078004f04be00000006008d
:103cb000889fbe008a1f7800000578000000e000a1
:103cc00020003d000005ea00d0062000a1cc26001f
:103cd000800f55004000340042062000110009000a
:103ce0000205d80000017800010078004311dd00d2
:103cf000a9cc26001e003700a2002000811f7800fa
:103d0000110009000205d8000001780001007800c8
:103d1000cf0078004311dd00010141004300dd00c8
:103d2000010040003002be002003be00422090008f
:103d3000d2209000f2219000622190001bf9070030
:103d40002b003700d0062000a1d72600800f550099
:103d50002100340042062000110009000205d800ad
:103d600000017800010078004311dd00a9d726008a
:103d700009014100a8002000110009000800d80036
:103d80004300dd000900400040229000d022900056
:103d900060239000f02390000288900092889000a9
:103da000b28990002289900000f90700801f7800f6
:103db00001027800110009000805d8000102fd0089
:103dc0004f0078004322dd00090242005403be0088
:103dd0004402be00d9ff3700ea0f5500c6ff3c0081
:103de0004350dd00010040005001be004000be0015
:103df0004f0578004f04be00000006008f03b0009e
:103e0000889fbe008a9fbe008c9fbe008e1f7800d8
:103e1000e0b79f00f1b79f0082bf9f000000eb005a
:103e2000a0b79f00df0437000001eb0050c2b300d1
:103e300080cf5000090032000100fb00efb0970076
:103e400054ff0700e10f4000d6043200afb09700e6
:103e50008100e800a1b79f00d2043700ffb19700ae
:103e600093407800d0c2b30080cf50000c003200e5
:103e700007003c006d40500080cf50000d00320024
:103e80006b40400080cf500019003a000e00370010
:103e900000c3b30080cf500015003a000f00370078
:103ea0000230a0007fb297000402e800f4b79f0040
:103eb000eaff37000200a000ffb297008502e80089
:103ec000f5b79f00e5ff37000210a0007fb697000e
:103ed0000c06e800fcb79f00e0ff37000220a000be
:103ee0007fb097000000e800f0b79f00dbff3700cd
:103ef0000218a300010032000200a1000238a30052
:103f0000010032000220a1000100fb0003fd2f0090
:103f100003004000e90f50000f003e008000eb005e
:103f2000c1b79f004fb29700ea20b800ffb29700d8
:103f30009500fb000100400003004000c0b79f0057
:103f40005500fb00f5b79f0003004000e90f50004b
:103f50000d003e00f3ff37000006eb00ccb79f00da
:103f6000a0c2b30080cf500007003a000fb89700fe
:103f7000c000780080bf9f00c1b79f00ffb19700cd
:103f80008301e800f3b79f00e0c2b3007fb297005f
:103f9000944f100021003a00820678000de0a00046
:103fa0008400e80064405000914f1000040032008b
:103fb000f1b79f008002eb00b5b79f0010003700fb
:103fc0000fbe97004c0078008cbf9f00b0b79f00d9
:103fd000ffb097008180e800f1b79f001300370021
:103fe000bfb19700ea18b80001004000020040008d
:103ff000b0b79f007fb297000402e800f4b79f00bb
:10400000ffb297009500fb0002fd2f0002804000e8
:10401000e90f5000f2ff36000400370082067800f6
:104020000dc0a0000006eb00bcb79f007fb097005a
:10403000b0407800f0b79f00c17f9f00c0c6b300ba
:1040400080cf50002700320014003c006840500030
:1040500080cf50009d00320009003c006c405000b1
:1040600080cf5000290032006b40400080cf5000cc
:10407000720032000104e000500432008e0037006c
:1040800060c6b30080cf50001c0032006340400087
:1040900080cf500088003a008c00370030c7b30052
:1040a00080cf50001c00320007003c0064405000ec
:1040b00080cf5000130032000040e80080cf500055
:1040c0007d003a001100370050c7b30080cf500088
:1040d0007d0032006340400080cf500076003a00ff
:1040e0000b003700000028000d48a30001003a0033
:1040f0000001200080867600ccff37000da0a000d4
:10410000720037000d60a000700037000d50a00055
:104110000d70a0006d0037008fb897004100780047
:1041200081bf9f00000478000000e00001003a0019
:10413000680f27008004eb00010037008104e800cd
:1041400089007800088044001004e000fbff3a007a
:104150003fb197000200e00003003200890f5100d8
:1041600001003100820478000007eb00cfb1970016
:10417000898f510001003600098751004368de0035
:10418000e106600019003a000d06780009003700ca
:10419000efb09700000220007efe0700e10f400014
:1041a000030032002fb297000402e800a4b79f007a
:1041b0000c06e8008e0f5600f5ff3a000087eb0072
:1041c0000a003700880078003100fb000104780005
:1041d000efb097006ffe0700e10f400003003200d0
:1041e000afb297008502e800a5b79f000900e9007b
:1041f00080047800e10f4000f2ff3a000006eb0077
:104200000d00e0000a003a00e6033700efb0970027
:10421000000220005ffe0700e10f400003003200b3
:104220002fb097000000e800a0b79f000c06e80040
:104230008e0f5600f5ff3a00da0337008fb897006b
:104240004100780081bf9f00cf80de00010178002f
:10425000820178000205be000004be000203be0019
:104260000002be004822de00482edd000402760077
:10427000c47f9f000d48a3000a0032000404e00040
:1042800008003200e14f420006003200d1fb2f004f
:104290000180470004487800184098002900200059
:1042a00002003700d07f9f0019002000d2fb2f00b2
:1042b00002844700a6ff3700c3fb2f00038447009a
:1042c00019002000a2ff37000d0cb3000070200081
:1042d00000826600210232000dc8a30002003200f5
:1042e00064002000b4b79f008fba97006881520025
:1042f00082bf9f003200be001201be00e0af9f00ef
:10430000f1af9f0082b79f0093b79f006022b80073
:104310006033b8006fa89700ffa897000fb197000f
:104320009fb19700f9f807000000e0000a003d0087
:104330006fa89700ffa897000fb197009fb1970053
:1043400003f0a200e0af9f00f1af9f0082b79f0093
:1043500093b79f003d00b3000000eb0080a79f00d3
:104360006022b8006033b8006fa89700ffa89700dc
:104370000fb197009fb19700fbfa07000000e00023
:104380003300320001fc2f00018247006fa8970024
:10439000ffa897000fb197009fb19700f7fa0700a9
:1043a0000fa097000000e900e300b800a200200081
:1043b000110009000200d8008000fd0081a79f00c5
:1043c0000100e00002003d000100e90080a79f001d
:1043d0000fa497000800ea0035fe07006faa9700b7
:1043e000ffaa97000fb397009fb397006ff70700de
:1043f000a0af9f00b1af9f00c2af9f00d3af9f009f
:104400006022b8000600200007ff2300bff8070065
:104410000000e00002003d000800e9000b0037004a
:104420006022b80006002000470224002fa8970051
:10443000bfa897004fa99700dfa99700eef60700e5
:104440000000e000020035000800e80080a79f009f
:104450003fb19700f80f510057003c00d0c6b300a1
:10446000804f5100290036000285fb0042062000e3
:10447000110009000285d8000001780001047800cd
:104480004311dd00abcc26000b0141006022b800d7
:104490000600200007fe230002889000928890000a
:1044a000b28990002289900040f70700a9002000ff
:1044b000809fbe00110009000984d8000004780024
:1044c0004f00be004344dd000b044400482290002e
:1044d000d822900068239000f823900033f707005b
:1044e000801f780001027800110009000985d800ba
:1044f0000102fd004f0078004322dd000b02420064
:104500005403be004402be001f0037000280fb00bf
:10451000a9cc2600ea4f510014003600a20020006a
:10452000110009000280d800000178000104780021
:104530004311dd00090141006022b800060020009f
:1045400007fe230042209000d2209000f22190002c
:104550006221900015f707004344dd000904440080
:104560003802be002803be00070037004300dd000c
:10457000090040006022b8000600200007fe23006a
:104580005001be004000be0008f707000002be0058
:104590000203be006fa89700ffa897000fb1970015
:1045a0009fb1970070f50700e0af9f00f1af9f004b
:1045b00082b79f0093b79f000fa49700e90f5400a4
:1045c00015003c006022b8006033b8006fa8970067
:1045d000ffa897000fb197009fb1970062fa0700fc
:1045e0000000e000320032006fa89700ffa897009b
:1045f0000fb197009fb1970084f60700e00f5000bd
:10460000e08f5800e00f5900e08f590028003a0071
:10461000e10f54002600340054692d0065822e00fd
:10462000b6e02200170124002fa89700bfa897002a
:104630004fa99700dfa9970034f807000000e000b9
:1046400002003d0073005400010037007200540066
:1046500080a79f000fa0970095fd0700a0af9f00c7
:10466000b1af9f00c2af9f00d3af9f000002be005a
:104670000203be006fa89700ffa897000fb1970034
:104680009fb1970064f7070060f607000205be00bf
:104690000004be006000b8006011b800a0a79f0031
:1046a000b1a79f00c2a79f00d3a79f002e0037008d
:1046b0006fa89700ffa897000fb197009fb19700d0
:1046c00052f607000205be000004be00e00f5000d5
:1046d000e08f5800e00f5900e08f590002003500cc
:1046e0007bf60700130037001000200001002000b7
:1046f0006011b80008006000898060000a01610054
:104700008b8161008b03d1000a83d3008982d3009f
:104710000882d300000072008180720002017300e1
:10472000838173006af607000002be000203be0028
:104730000df507000002be000203be006fa897003f
:10474000ffa897000fb197009fb19700aef5070043
:10475000a0a79f00b1a79f00c2a79f00d3a79f005b
:104760000000eb0080a79f0014c0b300a5f6260050
:104770000b0037000400fb004300dd000500400093
:104780005001be004000be000040e10001c8e10051
:1047900002d0e10003d8e100030039000442e80040
:1047a000f44f5200f3ff3a00c47f9f000400fb0067
:1047b000bfb09700008040008fa09700010040002c
:1047c0004fb1970000075100bfb197000300e00010
:1047d000010032000e07e90063806600010032002c
:1047e0000e07e9000d28a30026003200e1806600d4
:1047f0000d18a3000c003200d00220000100e000e0
:1048000001003a000080e900efb09700e1fc0700ea
:10481000e10f4000180032002fb297000402e800b8
:10482000a4b79f00140037000100e000120032001e
:10483000efb0970000022000d6fc0700e10f400017
:104840000d003200afb297008502e800a5b79f00c7
:1048500009003700efb0970000032000cdfc0700ef
:10486000e10f4000030032002fb697000c06e8006d
:10487000acb79f000e07e9000e00e000f5ff3c001a
:104880003d0037000d38a3000a0032000b0037004e
:10489000efb0970000022000befc0700e10f4000cf
:1048a000030032002fb097000000e800a0b79f007f
:1048b0000e07e9000e00e000f5ff3c00e180660015
:1048c0000d18a3000c003200d00220000100e0000f
:1048d00001003a000080e900efb09700adfc07004e
:1048e000e10f400024003200afb097008100e800e3
:1048f000a1b79f00200037000100e0001e00320039
:10490000efb0970000022000a2fc0700e10f40007a
:10491000190032002fb197000201e800a2b79f00f2
:10492000150037000000fb004300dd00a1f6260063
:10493000010040003002be002003be000800be009f
:104940000a01be0065f30700a40020000500200056
:104950006033b80068f307000003b000efb09700c1
:104960008cfc0700e10f400003003200afb197005c
:104970008301e800a3b79f004f7a97000440e90045
:10498000c07f9f00e14f4000e6ff3a000b00370078
:10499000efb09700000320007efc0700e10f40000d
:1049a00003003200afb297008502e800a5b79f0070
:1049b0000fa097000000e90080a79f000fa09700bc
:1049c0000000e000f2ff3c003fb6970020c1b300ba
:1049d000f20f560001003c006fe09700c07f9f007f
:1049e000cf7897000100fb003fb197000000510015
:1049f000e0a79f000104e00008003200efb097003c
:104a0000e002200063fc0700e10f400003003200d9
:104a1000afb197008301e800a3b79f004f7a9700da
:104a20000400fb00a2fc07000002be000203be005f
:104a30002fa09700bfa097004fa19700dfa197007c
:104a4000daf5070071f507001e0037000000fb00d3
:104a50004300dd00acf626000c0040003002be0032
:104a60002003be000800be000a01be001bf30700c1
:104a7000a4002000050020006033b8001ef30700ea
:104a80000003b000efb0970042fc0700e10f4000c8
:104a900003003200afb297008502e800a5b79f007f
:104aa000cf7897000100fb004300dd000c004000c0
:104ab0003002be002003be000800be000a01be0096
:104ac0000df307000205be000004be004f799700f9
:104ad0000240e900c07f9f00e14f4000dbff3a0049
:104ae0000006eb0009003700efb09700000320003c
:104af00028fc0700e10f400003003200afb197002f
:104b00008301e800a3b79f000c06e8006fa297009e
:104b1000840f5600f4ff3a000d38a300a1013200c3
:104b20000e00e0009f0134000006eb00efb097009c
:104b30000002200017fc0700e10f400003003200d4
:104b4000afb297008502e800a5b79f000c06e80009
:104b50008e0f560093013200f4ff37000d007800ed
:104b6000000cb20028003a000d00e00005003d00f6
:104b70000fbe97004c05be004c04be008cbf9f00ca
:104b8000140037000d48a3000b0032000fb9970046
:104b90004200be0082bf9f004f89de00cf91de0041
:104ba0000002be0002037800820378000605be0002
:104bb0000404be00070037008fb997004300780057
:104bc00083bf9f0000047800cfc4de000905780091
:104bd0008a057800e00f5400e08f5c00e00f5d0074
:104be000e08f5d0020003d003d00b3006000b80094
:104bf0006011b80008045000898458000a05590063
:104c00008b855900180037000d00e00005003d00bd
:104c10000fba97004405be004404be0084bf9f0045
:104c2000110037000d48a300080032008fba97002a
:104c30004500be0085bf9f00040178008401780014
:104c40000205be000004be00070037000fbe97003b
:104c50004c0078008cbf9f00000478000900200001
:104c60000a0020000b0020003fb097000000e00089
:104c700007003a00e00f5400e08f5c00e00f5d0099
:104c8000e08f5d0002003a0011002000b1b79f00e4
:104c90000d0778000e0cb20000042000800f5700b2
:104ca0002f00320003003c000e00e000070032003d
:104cb0003f00370000082000800f5700140032002a
:104cc000000c2000800f570039003a0014c0b300d8
:104cd000a5f626000b0037000400fb004300dd00b2
:104ce000050040005001be004000be000040e10051
:104cf00001c8e10002d0e10003d8e1002b00390037
:104d00000442e800f44f5200f3ff3a002700370056
:104d100000012000010020006011b80014c0b300a1
:104d20000040e10001c8e10002d0e10003d8e10049
:104d30001e003900450020000000d0008180d20014
:104d40000281d2008381d2008502e900faff3a0095
:104d50000442e800f04f5200f1ff3a001300370020
:104d600080002000010020006011b80014c0b300d2
:104d70000040e10001c8e10002d0e10003d8e100f9
:104d80000a0039003c0020000000d0008180d200e1
:104d90000281d2008381d2000c06e900faff3a00ba
:104da0000442e800f54f5200f1ff3a00c47f9f0033
:104db000cf7897000100fb003fb19700820f5000b1
:104dc00002003d00c27f9f0004003700bfb1970082
:104dd000808f510001003d00b0b79f004fb2970097
:104de0000400e0000400320063806600020032002c
:104df0000402e900c4b79f000de8a3000b003200d5
:104e0000cfb297003fb697008c8f520003003c0052
:104e10000000eb00c0b79f0004003700cfb0970040
:104e20003fb1970082805000c1b79f00cf799700b3
:104e30000300fb000002eb0094a79f00cfb2970095
:104e4000808f5200020034000080520090a79f0023
:104e50000d28a30036003200e18066000d18a30083
:104e60000c003200d00220000100e00001003a00f6
:104e70000080e900efb0970046fb0700e10f40001b
:104e80000e0032002fb697000c06e800acb79f006a
:104e90000a0037000100e00008003200efb0970080
:104ea000000220003bfb0700e10f4000030032003e
:104eb0002fb097000000e800a0b79f009fa09700c8
:104ec0000100e0000f0032000006eb00efb0970099
:104ed000000320002ffb0700e10f40000300320019
:104ee0002fb197000201e800a2b79f000c06e8006e
:104ef0009fa19700830f5600f4ff3a000002eb00d9
:104f000094a79f00bfb297004328dd0021f626003a
:104f10000100400090af9f004228dd006400500077
:104f200080af9f00e32eb800fca79f0082003700ef
:104f30001fa097000000e0001100320068806600aa
:104f40000f003a0000067800efb097000002200042
:104f500010fb0700e10f400003003200afb09700e4
:104f60008100e800a1b79f000c06e8001fa1970090
:104f7000820f5600f4ff3a008001eb0093a79f00d8
:104f8000e18066000d18a3000c003200d002200062
:104f90000100e00001003a000080e900efb0970056
:104fa000fcfa0700e10f4000d6ff32002fb2970055
:104fb0000402e800a4b79f00d2ff37000100e00020
:104fc000d0ff3200efb0970000022000f1fa070096
:104fd000e10f4000cbff3200afb297008502e8003e
:104fe000a5b79f00c7ff370000042000800f5700bf
:104ff0003100320003003c000e00e00007003200e8
:105000003e00370000082000800f570011003200da
:10501000000c2000800f570038003a001fa89700ae
:105020003002be002003be000800be000a01be0020
:10503000aaf10700a4002000050020006033b8009a
:10504000adf1070004c3b30004424000c47f9f00d9
:105050002a003700d50f2700d5b79f000d58a300b1
:1050600002003a00e0102700d0b79f001400200093
:10507000050020006033b8008fa897008100e90088
:10508000050033000402d0008582d2000683d200de
:105090008783d200f9ff37000800be000a01be0076
:1050a0008ef107006f0060005fb1970000004100c3
:1050b0001040780010003700140020000500200088
:1050c0006033b8008c0178008301e90005003300eb
:1050d0000402d0008582d2000683d2008783d200ea
:1050e000f9ff37000800be000a01be007bf107008f
:1050f000674060000043b000c07f9f004f7a970078
:105100000400fb00efb09700a2fa0700e10f400097
:1051100003003200afb297008502e800a5b79f00f8
:105120001fa897006800500090af9f008fa89700bd
:10513000e480500081af9f0063065600d0ff2f002f
:105140003fb197008010b8007fa297000000420096
:1051500063005000800f5600a3ff3a000d38a300f3
:10516000100032009fa297000500e0000d003400ff
:105170000006eb00efb097000002200085fa070060
:10518000e10f4000030032002fb097000000e8005c
:10519000a0b79f000c06e8009fa09700810f560063
:1051a000f4ff3a007fb19700b2407800f2b79f0059
:1051b000c17f9f000104e0001bfb3a002fb0970065
:1051c0004f0778004f06be004f05be004f04be00db
:1051d0008f03b100000006000200fa00889fbe00a5
:1051e000a0ff9f0001047800b100900081047800c6
:1051f0000904b200020032000000fb003600370054
:105200000118a30005003a000103b300310498001f
:10521000190498000080eb002f0037005800900020
:105220000000e00006003a00480090001200200054
:10523000e6805700d8ec07001904980024003700d6
:10524000280090000000e00008003a00c01c270081
:1052500020049800000c78002000200050049800e2
:10526000100498000130a00031049800180190004b
:10527000a800900048009000c7ec070028009000ac
:10528000000c78000080eb001004980018007800f3
:10529000aff8970001587800000c78002ff89700bd
:1052a000ea4f50000a003a00380090000088a3003e
:1052b0000700320018019000a800900048009000fc
:1052c000b5ec070019049800a8009000010c7800c4
:1052d000aff897000100fb004f04be000080fa0009
:0452e00000000600c4
:020000040000fa
:0200000401f009
:04000800fdff0000f8
:020000040000fa
:0200000401f009
:04000c0078ff000079
:020000040000fa
:0200000401f009
:040010005aff000093
:020000040000fa
:0200000401f009
:04001400faff0000ef
:020000040000fa
:0200000401f009
:04001800fcff0000e9
:020000040000fa
:0200000401f009
:04001c00dcff000005
:020000040000fa
:0200000401f009
:04002000cfff00000e
:020000040000fa
:100008004a6300005e63000032630000766300000c
:10001800ae63000032630000326300003263000008
:100028003263000032630000f8780000e2ad01009e
:100038003263000032630000326300001a6300007c
:10004800c66300003263000032630000ae50000057
:100058003a5100003263000032630000326300004e
:100068003263000032630000326300003263000034
:10007800c67300003263000050760000326300004f
:100088003263000032630000326300003263000014
:1000980070650000326300000852000048520000fa
:1000a80032630000326300003263000032630000f4
:1000b80032630000de730000326300007c750000cc
:1000c80032630000326300003263000032630000d4
:1000d80032630000326300003263000032630000c4
:1000e80032630000326300003263000032630000b4
:1000f80032630000326300003263000032630000a4
:100108003263000032630000326300003263000093
:100118003263000032630000326300003263000083
:100128003263000032630000326300003263000073
:100138003263000032630000326300003263000063
:100148003263000032630000326300003263000053
:100158003263000032630000326300003263000043
:100168003263000032630000105300005053000057
:100178003263000032630000326300003263000023
:10018800e053000020540000326300003263000096
:1001980032630000e876000032630000326300003a
:1001a80032630000326300003263000032630000f3
:1001b80032630000326300003263000032630000e3
:1001c80032630000326300003263000032630000d3
:1001d80032630000326300003263000032630000c3
:1001e80032630000326300003263000032630000b3
:1001f80032630000326300003263000032630000a3
:100208003263000032630000326300003263000092
:100218003263000032630000326300008077000020
:100228003263000032630000326300003263000072
:100238003263000032630000326300001878000067
:10024800326300003263000032630000b0780000bf
:100258003263000032630000326300003263000042
:020000040000fa
:1052e40000000000010000001c000000020000009b
:1052f4001d0000000e000000180000000300000064
:105304001e00000016000000140000000f00000042
:105314001900000011000000040000000800000053
:105324001f0000001b0000000d000000170000001b
:10533400150000001300000010000000070000002a
:105344001a0000000c00000012000000060000001b
:105354000b000000050000000a0000000900000026
:1053640000c100008140000001c000008041000035
:1053740001c000008041000000c100008140000025
:1053840001c000008041000000c100008140000015
:1053940000c100008140000001c000008041000005
:1053a40001c000008041000000c1000081400000f5
:1053b40000c100008140000001c0000080410000e5
:1053c40000c100008140000001c0000080410000d5
:1053d40001c000008041000000c1000081400000c5
:1053e40001c000008041000000c1000081400000b5
:1053f40000c100008140000001c0000080410000a5
:1054040000c100008140000001c000008041000094
:1054140001c000008041000000c100008140000084
:1054240000c100008140000001c000008041000074
:1054340001c000008041000000c100008140000064
:1054440001c000008041000000c100008140000054
:1054540000c100008140000001c000008041000044
:1054640001c000008041000000c100008140000034
:1054740000c100008140000001c000008041000024
:1054840000c100008140000001c000008041000014
:1054940001c000008041000000c100008140000004
:1054a40000c100008140000001c0000080410000f4
:1054b40001c000008041000000c1000081400000e4
:1054c40001c000008041000000c1000081400000d4
:1054d40000c100008140000001c0000080410000c4
:1054e40000c100008140000001c0000080410000b4
:1054f40001c000008041000000c1000081400000a4
:1055040001c000008041000000c100008140000093
:1055140000c100008140000001c000008041000083
:1055240001c000008041000000c100008140000073
:1055340000c100008140000001c000008041000063
:1055440000c100008140000001c000008041000053
:1055540001c000008041000000c100008140000043
:1055640000c00000c1010000c303000002c200002b
:10557400c606000007c7000005c50000c4040000fb
:10558400cc0c00000dcd00000fcf0000ce0e0000ab
:105594000aca0000cb0b0000c909000008c80000bb
:1055a400d818000019d900001bdb0000da1a00002b
:1055b4001ede0000df1f0000dd1d00001cdc0000fb
:1055c40014d40000d5150000d717000016d600002b
:1055d400d212000013d3000011d10000d01000003b
:1055e400f030000031f1000033f30000f23200002b
:1055f40036f60000f7370000f535000034f40000fb
:105604003cfc0000fd3d0000ff3f00003efe0000aa
:10561400fa3a00003bfb000039f90000f8380000ba
:1056240028e80000e9290000eb2b00002aea00002a
:10563400ee2e00002fef00002ded0000ec2c0000fa
:10564400e424000025e5000027e70000e62600002a
:1056540022e20000e3230000e121000020e000003a
:10566400a060000061a1000063a30000a26200002a
:1056740066a60000a7670000a565000064a40000fa
:105684006cac0000ad6d0000af6f00006eae0000aa
:10569400aa6a00006bab000069a90000a8680000ba
:1056a40078b80000b9790000bb7b00007aba00002a
:1056b400be7e00007fbf00007dbd0000bc7c0000fa
:1056c400b474000075b5000077b70000b67600002a
:1056d40072b20000b3730000b171000070b000003a
:1056e400509000009151000093530000529200002a
:1056f40096560000579700005595000094540000fa
:105704009c5c00005d9d00005f9f00009e5e0000a9
:105714005a9a00009b5b00009959000058980000b9
:1057240088480000498900004b8b00008a4a000029
:105734004e8e00008f4f00008d4d00004c8c0000f9
:105744004484000085450000874700004686000029
:105754008242000043830000418100008040000039
:105764003c4e0000414e00004f3e0000003c000053
:105774004d410000433e0000253000003258000037
:105784002530000032580000253000003258000057
:105794002530000032580000253000003258000047
:1057a40025300000325800003c2f00004d4100001d
:1057b400433e0000003c000049460000313e00002a
:1057c400003c000044480000435000003e0000003c
:1057d400444800004350000000530000746100007e
:1057e40074690000630000003c2f0000444800007e
:1057f400435000003e0000003c490000503e0000c1
:10580400257500002e250000752e0000257500006a
:105814002e250000753c00002f490000503e00007a
:10582400003c00004e450000544d00004153000070
:105834004b3e0000257500002e250000752e00004b
:10584400257500002e250000753c00002f4e000039
:10585400455400004d410000534b00003e00000041
:105864003c470000415400004557000041590000e6
:105874003e250000752e0000257500002e25000031
:10588400752e0000257500003c2f000047410000e4
:105894005445000057410000593e0000003c000000
:1058a400504f0000525400003e250000753c00009b
:1058b4002f5000004f520000543e0000003c0000f6
:1058c4004c4900004e4b00003e550000703c000067
:1058d4002f4c0000494e00004b3e0000003c0000ed
:1058e4002f490000463100003e0000003c48000003
:1058f4004f530000544e0000414d0000453e00004f
:1059040000250000730000003c2f0000484f0000f9
:10591400535400004e4100004d4500003e0000007d
:105924003c4300004f4d00004d4500004e54000024
:105934003e0000003c2f0000434f00004d4d00008e
:10594400454e0000543e0000003c0000434f000060
:105954004e460000494700003e4d000050490000fb
:105964004d2000002d2000004d7500006c740000d7
:1059740069200000507500006c7300006520000071
:10598400496e000070750000742000004d6f000027
:10599400647500006c6500003c2f0000434f00005c
:1059a4004e460000494700003e0000003c41000014
:1059b400505000005645000052530000494f00006b
:1059c4004e3e00002d2d00002d3c00002f41000014
:1059d400505000005645000052530000494f00004b
:1059e4004e3e0000003c00005345000054550000aa
:1059f400503e00002d2d00002d3c00002f530000d0
:105a040045540000555000003e0000003c56000084
:105a140045520000534900004f4e00003e00000074
:105a24005570000064610000746900006e67000036
:105a34002e2e00002e00000031760000347200008b
:105a4400313000002d5000003536000038000000d1
:105a54003c2f00005645000052530000494f0000ff
:105a64004e3e0000003c0000414c00005445000044
:105a7400524100003e4e0000413c00002f41000016
:105a84004c54000045520000413e0000003c000020
:105a9400494600003e3100003c2f0000494600000a
:105aa4003e0000003c490000444500004e54000004
:105ab40042550000545400004f4e00002f3e000099
:105ac400003c000050350000363800002f3e000036
:105ad400003c00002f4e0000414e00004f3e0000ed
:105ae40025630000003800006632000038630000bf
:105af40034330000636200003433000037360000a2
:105b04003861000066000000000000000000000092
:105b14000000000000000000000000000000000081
:105b240000000000004e0000616e00006f3a0000ab
:105b34004b6e00006f6300006b0000003c430000ec
:105b44004f4d00004d4100004e4400003e00000057
:105b54003c4d0000414300003e0000003c5000006a
:105b640041530000535700004f520000443e0000d0
:105b740000490000646500006e740000696600005e
:105b84007900000052650000737400006172000027
:105b94007400000052650000636f00006e66000030
:105ba4006967000075720000650000003c49000050
:105bb400503e0000003c00004e450000544d0000e3
:105bc400415300004b3e0000003c000047410000f0
